:020000040800F2
:10000000F8BF00204D360308573A0308453A030865
:10001000593A0308653A0308713A030800000000E2
:100020000000000000000000000000007D3A03080E
:100030007F3A030800000000713C0308498C020865
:1000400001C00008693B0308753B03087D3B0308BA
:100050000D04030801C00008FD3A0308033B030830
:10006000093B03080F3B0308153B030871E6020830
:1000700081E6020891E60208A1E60208B1E602085C
:10008000C1E60208D1E6020801C000080000000035
:100090000000000000000000000000001B3B0308FF
:1000A000913B0308973B0308A93B0308AF3B0308B8
:1000B000B53B0308BB3B0308C13B030801C0000874
:1000C00001C0000801C0000801C0000801C000080C
:1000D00001C00008E13B0308E73B03080000000003
:1000E0003F3B03086F3B03088D3A03080000000004
:1000F000000000000000000000000000E1E602082F
:100100000000000001C00008C93B030801C000084E
:1001100000000000000000000000000000000000DF
:10012000F1E6020801E7020811E7020821E70208E8
:1001300031E702080000000000000000000000009D
:10014000000000000000000000000000813A0308E9
:1001500041E7020851E7020861E70208ED3B0308A6
:1001600001C0000801C000080000000000000000FD
:10017000000000000000000000000000000000007F
:100180000000000001C000080000000000000000A6
:0401900001C00008A2
:10C00000FEE7000030B51C4CD4E99D53C01AC109AD
:10C01000C0F3021E6B5C012202FA0EF223EA020355
:10C020006B54D4F8802283094FEA101CB2EB901FA6
:10C03000D4F86C0288BFC4F88032C15C4FEA9C0E11
:10C040000CF0030303255B0005FA03F321EA030365
:10C0500000F80E300CF1010CD4F86C024FEA9C0E83
:10C060000CF0030310F80E105A0041FA02F202F02D
:10C070000302022AE7D030BD0C000020054A034627
:10C08000506A1A6841688A4202D3521A1A6070478D
:10C090000068F7E70C0000207F289DBF024B185C6A
:10C0A000C0F3400000207047686003087F289DBFF0
:10C0B000024B185CC0F3C0000020704768600308A2
:10C0C0007F289DBF024B185CC0F3800000207047A2
:10C0D000686003087F289DBF024B185CC0F3001006
:10C0E00000207047686003087F289DBF024B185CE2
:10C0F000C0F34010002070476860030808B502468E
:10C10000FFF7E8FF00B12032104608BD08B502462F
:10C11000FFF7EAFF00B1203A104608BDD0E902322D
:10C1200093423DBF5A1C826018784FF0FF30704731
:10C130000369272B2BD0222B29D0A3F162011329CD
:10C140001ED8174ACA40D2071AD54269272A1ED0DC
:10C15000222A1CD0722B1CD1662A06D18269272A7A
:10C1600015D0222A13D0722B15D14369622B0CD122
:10C17000806927280BD0A0F122035842584170470C
:10C18000662BF0D14269722AE8D000207047012066
:10C190007047662BF6D0622BF7D14369722BE6E726
:10C1A0001100090002690A2A10B5044635D1836AD4
:10C1B000013383620123A269E36263696261226FD2
:10C1C0002361002A31D0616E8A423FBF501CA16EAC
:10C1D00020678A5C28BF0022A2613BB9E269226124
:10C1E000226A6261626AA2616366236763690D2BDA
:10C1F00008D1A3690A229342626103D1D4E9010301
:10C200009847A061A369013306D163695A1C03D022
:10C210000A2B1CBF0A23A36110BDC36A092A04BFED
:10C22000073323F007030133C5E7D4E90103984737
:10C23000A061DBE770B504460D4600262269531C59
:10C2400001D1304670BD0A2A08D115B1636B002BAD
:10C25000F7D02046FFF7A6FF0126EFE71046FFF7CD
:10C260001BFF18B12046FFF79DFFE7E7232A08D1FF
:10C270002046FFF797FF23695A1CDFD00A2BF7D11E
:10C28000DCE75C2ADDD163690A2BDAD12046FFF7AF
:10C2900089FFE7E710F0010204D040F001000860D8
:10C2A00001207047A8B110F003030FD102793A2A98
:10C2B0000ED183680B6013F00100F1D19A0708D109
:10C2C0001868044BC31A58425841704710467047CB
:10C2D000184670478C82030810F001021CD110F040
:10C2E00003030CD000F00F03062B15D00A2B11D13D
:10C2F00000090E3803288CBF00200120704770B160
:10C3000002793A2A08D02D2A08D18068B0FA80F044
:10C310004009704710467047012070471846704723
:10C32000C20702D540F001007047830710D003090F
:10C3300000F00F00062803D1D80040F0020070473B
:10C34000A3F10F00022809D8064B53F820007047CC
:10C3500030B103793A2B03D18068704702487047A7
:10C3600002487047285E0308AC690308B4690308F3
:10C370000346006830B508B9106030BD840702D0AC
:10C3800013600120F9E74468E5B28D42F8D1083026
:10C390001060200AF1E7D0E90432013B036152F852
:10C3A000230070470369C9431944436953F82100C6
:10C3B000704731B1826801F00303134304BF0B6877
:10C3C00083607047F7B51E4659B111F0030511D1CE
:10C3D0004F68FCB294420DD13F0A01F10804BD42FE
:10C3E00001DB03B0F0BD54F8041B01900135B047E8
:10C3F0000198F4E7334603B0BDE8F0401847000069
:10C40000024B89689D22FFF7DDBF00BFB1EF000836
:10C41000024B89686B22FFF7D5BF00BF8F0201086E
:10C420004379426A032B88BF436B114494BF034690
:10C430009B18416218467047837913B1034618462A
:10C4400070474279C36A032A194401D8C162F5E7EB
:10C45000826AC1621A44436B1344F0E710B50C467C
:10C460000121FFF7E9FF047010BD4379012B07D0CC
:10C4700083681944036981605A8C9142C8BF59840A
:10C48000704710B51446FFF7F0FF0121FFF7D4FF06
:10C49000047010BD038B013B03835D22406A4FF0A3
:10C4A000FF31FFF7EEBFF8B516461F46FFF7DDFF79
:10C4B0008479054604BB4379022B25D9C46A036AF3
:10C4C000C4F1FF2453F8273004F57F04FE34442ED2
:10C4D0001C4412D814F1400F14DB3F2CD4BF0027AA
:10C4E0000127E41BB91C2846FFF7A6FF06706FB9A9
:10C4F000442E98BF40344470F8BD7F2C94BF002771
:10C500000127EEE70127ECE70127EBE76B79442EE3
:10C5100098BF04F58044042B05D1B4F5004F24BF27
:10C52000012385F8383064F07F03E4114370847090
:10C53000E2E7002A10B502F1470204460B46D2B2E8
:10C540000CBF02210021406AFFF7ADFF238B226A56
:10C550000133918C9BB29942238338BF938410BDE1
:10C56000264BD3F8D431022B2DE9F04704468946F7
:10C570000ED88669B1420BD9C56A43698E1BED1A84
:10C5800040F2FF7756EA050304D1E36AC4E90539AE
:10C59000BDE8F087062E01D90F2D1AD91F2DAA4606
:10C5A00028BF4FF01F0A554510D8032EB04628BFAC
:10C5B0004FF0030801212046FFF732FF4AEA4813F3
:10C5C0000370A5EB0A05A6EB0806DBE74FF00008B1
:10C5D000F0E7BE42B0464FF0020128BFB846204601
:10C5E000FFF71EFF4FEA181303F070032B4363F0AD
:10C5F0007F03037080F80180AA46E2E70C00002068
:10C6000038B50D4600218171FFF72FFF4379012BCB
:10C610001EBF036AC26A43F8252038BD01F110032A
:10C620003F2B73B506460C4608D8A1F18002D2B262
:10C63000012102B0BDE87040FFF723BF0121222293
:10C640000DF10505FFF71DFF294604F07F00E3B259
:10C65000E4112A4605F8010D601C0128F5D80134C3
:10C6600003F0400313D11BB97F2305F8013C951E4D
:10C67000491B3046FFF7E0FE01AC01462B46A342C2
:10C6800009D19DF804205B1BC25402B070BD002B81
:10C69000EED00023E9E713F8012B62F07F0201F8E6
:10C6A000012BECE753220121FFF7EBBE57220121BA
:10C6B000FFF7E7BE59224FF0FF31FFF7E2BE5A22E3
:10C6C0000021FFF7DEBE5B220021FFF7DABE10B5C6
:10C6D0000B46044642220021FFF7E5FE0123A37129
:10C6E00010BD322913B513D0332914D101240721E9
:10C6F0002939CAB24FF0FF310190FFF7C2FE01980D
:10C700005CB1D322002102B0BDE81040FFF7B9BEF2
:10C7100001240621ECE70024EAE702B010BD622202
:10C720006FF00101FFF7ADBE10B5632204464FF074
:10C73000FF31FFF7A6FE0123A37110BD10B501F173
:10C7400067020446D2B24942FFF79BFE2269D38AB0
:10C7500043F00103D38210BD084611461AF0C0BC55
:10C7600038B505460C46FFF7B7FD38B12846FFF748
:10C77000D7FD07F011FA031B5842584138BDC900D4
:10C7800010B50122044641F00201083007F0BCFE5A
:10C7900043683BB9A368C3F3DC03013B5B0043F090
:10C7A000010343604068C0F34F0010BD8968406AD0
:10C7B00025F0ECBA0E2902D1034925F0E7BA413140
:10C7C000CAB20121FFF75DBEAC69030810B504468B
:10C7D0005E22406A0021FFF754FE606A1021FFF7D5
:10C7E000E9FF606A0121BDE81040FFF7A7BF4923B8
:10C7F000482225F07DBA4F234E2225F079BA000059
:10C800000F49D1F8883043F47003C1F888300D4BDC
:10C810001A68002042F001021A6098601A6822F03B
:10C82000847222F480321A60074A5A601A6822F42D
:10C8300080221A60D8604FF000638B60704700BFA1
:10C8400000ED00E00038024010300024024B5A692D
:10C8500002605861002070470C000020024B5A69AA
:10C8600012685A61704700BF0C000020044A9369A7
:10C870001968916110B15A6818461047704700BF97
:10C880000C000020C460056146618761C0F81C800F
:10C89000C0F82090C0F824A0C0F828B0C0F82CD070
:10C8A00080ED0C8B80ED0E9B80ED10ABC0F808E0A6
:10C8B000FFF7CCBF024A138901331381704700BFD1
:10C8C0000C000020024A1389013B1381704700BF0E
:10C8D0000C0000202DE9F0432A4C00254FF0030CFA
:10C8E000D4F86C620021013143189A0803F0030365
:10C8F000B25C5B0042FA03F303F00303022BF2D0B5
:10C90000D4F87832090103EB00108E0889B300EBEC
:10C91000860603681A0729D1D4F878125A1AC2F386
:10C92000011E99424FEA92174FEA4E0E4FEA121239
:10C930001CD8D4F87C12994218D9D4F86C9219F802
:10C94000078048FA0EF303F003030CFA0EF1012BF3
:10C9500041EA08010AD104EB450E3F2D09F8071002
:10C960009ABF0135AEF88C22C4F888320430B04248
:10C97000CFD12DB1013D04EB4503B3F88C02AFE7F5
:10C98000BDE8F0830C00002070B5184ED6F8883250
:10C99000DBB1D6F8703200259800C6F88852A0B1F5
:10C9A0000024D6F86C12A20804F003038A5C5B0032
:10C9B00042FA03F303F00303032B07D00134A04230
:10C9C000EFD8D6F88832002BE7D170BD2046FFF7AC
:10C9D00081FFD6F870320134B4EB830F4FEA830045
:10C9E000DFD3D6F88832002BD7D1EEE70C00002039
:10C9F0002DE9F04F644FD7F87032D7F88422B2EBAC
:10CA0000830F34BF02F101084FEA830897B0B8F1F1
:10CA1000000F00F09F800025AB46AC46032304E0E6
:10CA2000012A29D00135A8451CD0D7F86C02AE08E0
:10CA300005F00304815D640041FA04F202F0030290
:10CA4000022A00EB950E12D0032AE9D1022202FA43
:10CA500004F4AB46013521EA0401A84581554FF0A5
:10CA6000000CE2D1C7F884B217B0BDE8F08FBCF17A
:10CA7000000F5ED1AB46D5E7D7F874224FEAD50A4E
:10CA800005F0070912F80AC04CFA09F0C00702EBDA
:10CA9000D5024ED5D7F878022901415800EB051090
:10CAA00000293AD002AAB12107F080FE029A03239E
:10CAB00072B3EFF3108172B6B7F8DC21130443BFF1
:10CAC000B7F8DC2102F1FF3212B24FF6FF72A7F87D
:10CAD000DC2181F31088029A0399019204A8009145
:10CAE000FFF7D0FE00283BD1DDE90012104608F028
:10CAF000B7F8FFF7B3FE0323EFF3108172B6B7F870
:10CB0000DC21013212B2A7F8DC21DAB181F31088FE
:10CB1000D7F8742212F80AC05244012101FA09F927
:10CB20002CEA090C82F800C0D7F86C22915D02EB68
:10CB3000060E03FA04F421EA04018EF800104FF007
:10CB4000010C6FE7FA698AB10022A7F8DC2181F3B2
:10CB50001088DDE7C346C7F884B217B0BDE8F08F90
:10CB600005990A480AF086FD0323C5E7D7F8E021B6
:10CB7000002AE9D197F8E821002AE5D14FF0010217
:10CB8000A7F8DC21C2E700BF0C000020E06B03081F
:10CB900081B3F8B5041F184E04EB8105032754F840
:10CBA000043F1A071AD1D6F87822981AC0F3011157
:10CBB0009A424FEA901C4FEA41014FEA10100DD8FB
:10CBC000D6F87C229A4209D9D6F86C2212F80CE0E9
:10CBD0004EFA01F303F00303012B02D0A542DED18C
:10CBE000F8BD07FA01F141EA0E0102F80C10FFF757
:10CBF00071FEF3E7704700BF0C00002070B51C4EBB
:10CC0000D6F88832DBB1D6F8703200259800C6F825
:10CC10008852A0B10024D6F86C12A20804F00303D5
:10CC20008A5C5B0042FA03F303F00303032B0FD08B
:10CC300001348442EFD3D6F88832002BE7D1FFF7D6
:10CC4000D7FE33890022013BC6F88022338170BDB4
:10CC50002046FFF73FFED6F870320134B4EB830F65
:10CC60004FEA8300D7D3D6F88832002BCFD1E6E73E
:10CC70000C000020394BD3E99E122DE9F047521ADF
:10CC80000024D3E99B61C0E90144C0E90344C0E941
:10CC9000054402604FEA810CA646274625462246F7
:10CCA000A1462146A04616F8093049000B4103F081
:10CCB0000303012B47D0022B41D0002B38D0013287
:10CCC00094450ED04FEA920902F0030116F809309C
:10CCD0004FEA410A43FA0AF313F0030301D0012B90
:10CCE000E1D1012D11D0022D02BF41690131416115
:10CCF0008169A94238BF856194450FD0012B26D0A8
:10CD00004FEA920902F00301CDE7016901310161A7
:10CD10008169A94238BF85619445EFD1474500D963
:10CD2000C76024014FEA0E13C0E90143BDE8F08754
:10CD30000EF1010EC0F808E001371D46BFE70134CF
:10CD400044600135BBE7013444601D46B7E7B84590
:10CD500001D2C760B8460027D2E700BF0C00002010
:10CD60000F302DE9F84306095AD0684C2389002B6F
:10CD700056D1B4F80C33002B0D460CBF4FF0010E0A
:10CD80004FF0000E50D1D4F88002D4F87072874270
:10CD900039D9D4F86CC2411E614400221AE0013234
:10CDA000964251D913F00C0F1ED10132964240F237
:10CDB000A48013F0300F1CD10132964240F2A080C3
:10CDC00013F0C00F1AD10132964240F29C8001301C
:10CDD000B84218D211F8013F13F0030FDFD013F05F
:10CDE0000C0F4FF00002E0D013F0300F4FF00002B4
:10CDF000E2D013F0C00F4FF00002E4D00130B8428F
:10CE00004FF00002E6D3BEF1000F09D122F05CFD25
:10CE1000D4F88002D4F8707287424FF0010EB8D86F
:10CE200000231846BDE8F883D4E9C4239A42AAD364
:10CE300022F04AFDD4F88002D4F87072B84238BFAC
:10CE40004FF0010EA5D3EBE78000012A02BF431C7F
:10CE50009B08C4F88032D4F88432811A4F1C834274
:10CE600038BF03464FEA970EC4F8843207F0030335
:10CE70001CF80E904FEA43080123023103FA08F32D
:10CE800043EA090388420CF80E3013D34FF002082E
:10CE90004FEA910CD4F86CE201F003031EF80C90F9
:10CEA0005B0008FA03F3013143EA090388420EF8F4
:10CEB0000C30EDD2D4F81033D4F878823344C4F86F
:10CEC000103308EB071318461201002126F03CFC32
:10CED0003E010346002DA4D00022D4F8740248F885
:10CEE0000620F9080122445C07F0070702FA07F759
:10CEF000274347541846BDE8F88380000130A4E773
:10CF000080000230A1E7800003309EE70C00002083
:10CF100010B500210446FFF723FF18B914B12046CD
:10CF200008F0DEF910BD00002DE9F0410646302082
:10CF30000D4690461F46FFF7EBFF072D0446057090
:10CF4000C0F80C8001D0012D1ED1D8F80820C2F302
:10CF50000F12A2820C20FFF7DBFF0378012262F39D
:10CF60000203037004232061E38427832020FFF75A
:10CF7000CFFF336A63600023A360F369E06233B9D3
:10CF8000F4612046BDE8F081044B5A5DE1E71A46A2
:10CF90009B68002BFBD19460F3E700BFB89F0308A8
:10CFA0000021FFF7DDBE0000034B1A8912B908B15A
:10CFB000FFF728B8704700BF0C000020036810B5C9
:10CFC000044613B14068FFF7EFFF2046BDE810406C
:10CFD000FFF7EABF2DE9F84F88460646002800F023
:10CFE000AC80002972D0594D2C89002C72D1D5F813
:10CFF0007812D5F87072411A0B09581C08F10F0EFF
:10D00000B0EB870F4FEA1E1E4FEA870AA44680F056
:10D010009A80D5F86C920127840800F0030B19F868
:10D0200004404FEA4B0B44FA0BF404F00304022CC7
:10D0300054D02CB90CF1010C0CEB0704A6454ED8CA
:10D04000BE453FD01ED3BC44E6454CD9002A41D052
:10D05000D5F87422C90903F00703515C1941404611
:10D0600001F00101FFF77CFE044698B33A01314616
:10D0700026F026FB2B8933BB3046FEF7C3FF204644
:10D08000BDE8F88F9E4470463B444FF003084FEADA
:10D09000900CD5F86C1200F0030211F80C4052000D
:10D0A00008FA02F2013024EA0202984201F80C2048
:10D0B000EDD1D5F880324FEA9E02B3EB9E0F88BFC8
:10D0C000C5F8802234462046BDE8F88F1F4B1C89E6
:10D0D000002CD2D000242046BDE8F88F0137013063
:10D0E000824599D1ACE703EB0E013B44994211D93B
:10D0F0004FF002089808D5F86C4203F0030214F8C8
:10D1000000C0520008FA02F2013342EA0C029942CE
:10D110002254EFD1D5F88432AEEB07028B4238BFF0
:10D120000B46120106EB071034460021C5F8843285
:10D1300026F00AFB2046BDE8F88F01464046BDE8D0
:10D14000F84FFFF70DBE01277AE700BF0C00002063
:10D1500010B501220C46FFF73DFF18B914B1204667
:10D1600008F0BEF810BDF8B504461D46D0E900032E
:10D1700083420F46164608D31030C100A068FFF75F
:10D18000E7FF2368A06010332360D4E90103421C49
:10D19000626053F8301067F3170143F8301003EB67
:10D1A000C002D6705560F8BD10B48469CAB20023BD
:10D1B000616C5DF8044BFFF7D6BF38B5D0E9033298
:10D1C0009A4204460D4608D3103399004069FFF790
:10D1D000BFFFE36860611033E360D4E90432591C97
:10D1E000216142F8235038BDF8B5446A06460D4621
:10D1F000BCB1D4E900132B448B4223D905F10803B9
:10D20000002219442046FFF7E5FE0246B8B96168DE
:10D2100020460831FFF7DEFE63682360336A6360EF
:10D220003462802D2F4638BF802707F10800FFF7B2
:10D230006FFE0023076043600446706202E02368CB
:10D240002B44236060680544656008342044F8BDC1
:10D2500038B50D460C211446FFF7C6FF4FF49D72FA
:10D26000C0E90124056038BD2DE9F04105460F46AF
:10D270001446164696B9314620460FF0B1FA0146DB
:10D2800000F10808ACB90A4628463946FFF7E0FF26
:10D2900001462846FFF791FF012008E0013E314694
:10D2A0002846FFF77FF8FFF717F80028E2D1BDE81E
:10D2B000F0812846FFF76FF80646FFF731F8013C8A
:10D2C00048F82400002EDDD0B307DBD1686A00F1F6
:10D2D00008039E42D6D3426813449E42D2D273685A
:10D2E0001B0A0233A2EB83034360CBE7014441F204
:10D2F0000553884204D398B2012838BF01207047F3
:10D3000010F8012B03EB43135340F2E72DE9F047EC
:10D3100080460E46FFF7EAFF124B5C6A07460CB9DF
:10D3200020461AE0D4F80C90002504F1180A4D4567
:10D3300001D12468F3E7236933F81530BB420ED1DD
:10D3400063695B5DB3420AD15AF825003246414613
:10D3500026F022FA18B960682844BDE8F087013544
:10D36000E5E700BF0C0000202DE9F04780460E469F
:10D37000FFF7CCFF0246002840F08B80FF2E03D938
:10D380004549464807F0A0FF454CD4F8C801751C34
:10D3900090B1D4E973132B448B4229D92944FFF768
:10D3A00019FE0746D8B90246D4F8D011D4F8C801FE
:10D3B000FFF710FEC4F8C871802D2F4638BF8027B4
:10D3C0003846FFF7EDFDC4F8C801D0BB2846FFF78B
:10D3D000E7FDC4F8C80198BB284607F081FFD4F8E0
:10D3E000CC312B44C4F8CC31D4F8C831002BE3D075
:10D3F000D4F8D031D4F8C87131461F4440462B448C
:10D40000C4F8D031FFF772FF4FF0000941460546DE
:10D410003246384626F054F907F80690636AD3E995
:10D420000283434525D30E2000FB08F018304FEA55
:10D43000480AFFF7B5FD50B9C4F8C8015046CCE71B
:10D440002F460023C4F8CC71C4F8D031D0E700F1E6
:10D450001803626A026003EBC803036103EB8803ED
:10D4600043615368D268C0F80C901344C0E9013A94
:10D470006062636AD3E903215B6921F812509E540C
:10D48000911D636A43F82170D96858680131D960E9
:10D4900002441046BDE8F087C44303083081030806
:10D4A0000C00002007B5019001A8FEF7E7FD019AE6
:10D4B000036933F8120003B05DF804FB07B501906F
:10D4C00001A8FEF7DBFD019B4269D05C03B05DF86B
:10D4D00004FB07B5019001A8FEF7D0FD019B0633C0
:10D4E00050F8230003B05DF804FB13B5019001A8C8
:10D4F0000C46FEF7C3FD019B4269D25C22600633F5
:10D5000050F8230002B010BD2DE9F0472C4DDFF894
:10D51000B480D5F86CC20024D5E99E6E04600C601E
:10D5200014601C606C6A0CB1444505D1196812681E
:10D5300011441960BDE8F0870568D4F814900135EE
:10D5400005600D68E7683D440D60E56809EB050A74
:10D55000D1452CD314F00F0730D1B44222D37445F7
:10D5600020D2A51B4FEA95194FEA151A1CF809900D
:10D57000C5F301156D0049FA05F505F00305012D08
:10D5800010D101370AEB07054FEA950905F00305AD
:10D590001CF809906D0049FA05F505F00305022D08
:10D5A000EFD03F011D6824683D441D60BBE715684E
:10D5B0006F1C19F8015B2F441760C9E70027F1E7DA
:10D5C0000C000020B074030830B50023202411F8AB
:10D5D000012F0AB9027030BD120600F101051FD5F6
:10D5E0000BB1047028460B78124A03F07F036BB925
:10D5F000013A12F8013F13F0800F054600F10100D7
:10D600000BD003F07F032B700123E0E712F9015BDD
:10D61000002DFBDA013BDBB2E9E700F8013CE8E76B
:10D62000012B04BF047028460B7800F8013B02234D
:10D63000CDE700BFC943030838B50129044638BF08
:10D6400001210025084621606560FFF761FC257314
:10D65000A06038BD38B505460C460131FFF7ECFF38
:10D660006C6038BD037B10B5044613B98068FFF7C2
:10D670009BFC0023A36010BD10B5044690B1C368A5
:10D680004068984704F15000FFF7ECFF04F1600098
:10D69000FFF7E8FF206CFFF787FC2046BDE810404D
:10D6A000FFF782BC10BD000038B5037B04460D4671
:10D6B0001BB10748002107F007FE01688068294474
:10D6C000FFF746FD2368A0601D442560184438BD5F
:10D6D0003081030838B544680368214499420546FF
:10D6E00010D9037B1BB10848002107F0EDFD01F1C3
:10D6F000100424F00704083480682146FFF728FD51
:10D700002C60A86038BD00BF3081030870B50446A6
:10D710000E4611461546FFF7DDFFD4E901302A46D3
:10D720003146184425F0FCFF62682A44626070BDEF
:10D7300038B504460D46FFF7CDFFD4E901301D444E
:10D740006560184438BDD0E900239A4210B50446FC
:10D7500002D10121FFF7A8FFD4E901320021D15401
:10D76000A06810BD10B50C460121FFF7E1FF047061
:10D7700010BD7F29F8B50C46CEB204D80121FFF7C1
:10D78000D7FF0670F8BD06F03F06B1F5006FC1F394
:10D79000871546F0800607D20221FFF7C9FF65F022
:10D7A0003F0505704670EDE705F03F05B1F5803F98
:10D7B000C1F3073745F0800508D20321FFF7B8FF12
:10D7C00067F01F07077045708670DBE70421FFF7DD
:10D7D000AFFFA40C07F03F0764F00F0467F07F076A
:10D7E000047047708570C670CCE713B504460846D0
:10D7F000019125F0E3FF01990246204602B0BDE801
:10D800001040FFF783BF43688B422CBF591A002199
:10D81000416070472DE9F04F426E85B08046FAB105
:10D82000026FEAB929216030FFF79CFFD8F8102079
:10D83000C8F81C20D8F81420C8F82020D8F81820E0
:10D84000C8F82420D8F868201178C8F8101051784A
:10D85000C8F814109278C8F818200322C8F870206D
:10D860000021C8F854104046FEF7E4FCD8F83060B8
:10D87000D8F82820D8F82C40C8F84420002EC8F842
:10D88000484008DA082288F84C200136C8F8306091
:10D8900005B0BDE8F08F04D0072288F84C20013E87
:10D8A000F4E7002840D0D8F83420EABB062288F8F4
:10D8B0004C20D8E90F206FF000415518013C30F89A
:10D8C0001550AC42E4D023D9D8F838108A420AD394
:10D8D00008314900FFF73CFCD8F83820C8F8400070
:10D8E0000832C8F83820D8E90F21501CC8F83C008D
:10D8F00021F81240D8F830200132C8F83020C7E7AC
:10D90000013AC8F83C20D8F83020013AC8F8302055
:10D91000D8F83C20551830F81550AC42F0D3B7D0A9
:10D92000022288F84C20B3E7D8F810506C1C01D1C3
:10D930000022F6E74046FEF7FBFB0190002800F0CE
:10D94000F581002288F84C20D8F81020752A53D091
:10D95000622A08D1D8F81420722A52D1019F0225D8
:10D960000D22002413E0722A07D1D8F81420622A6D
:10D97000F4D0662A49D10522D3E7662A49D1D8F8DE
:10D980001420722AF7D0019C01250C22002798F858
:10D990004C1000293FD188F84C203DB14046FEF79D
:10D9A00001FC022D02D14046FEF7FCFBD8F8102006
:10D9B0004046222A14BF4FF0270A4FF0220AFEF7F2
:10D9C000F1FBD8F81020524528D1D8F81420924500
:10D9D00024D14046FEF7E6FB4046FEF7E3FB4FF05E
:10D9E000030924B1BC4908F16000FFF7FEFE4FF0C7
:10D9F000000B08F1500538E0012500240C222746D1
:10DA0000C5E701250D220024C0E7019F01250C2256
:10DA1000A7E73546F1E79142BFD039E74FF001095A
:10DA2000DFE7924518D008F1600BD8F810100CB160
:10DA30007B2937D05C2940F06E8140460291FEF789
:10DA4000B1FBD8F810B00299002F00F08A80284668
:10DA5000FFF78FFE594632E1514628460BF1010B84
:10DA6000FFF787FE4046FEF79DFBD8F81020511CBB
:10DA700000F05681B9F1010F02D10A2A00F050815D
:10DA8000CB45CED3594608F15000FFF7BCFE01212B
:10DA90004046FEF7CFFB4046FEF74AFB00287FF4E6
:10DAA00053AFF5E64046FEF77DFBD8F810107B2912
:10DAB0000AD12846FFF756FE4046FEF773FB7B214E
:10DAC0002846FFF74FFEB0E728215846FFF74AFEE9
:10DAD000D8F864300022D8F81010481C11D052BB7E
:10DAE0003A290ED07D290CD0212924D1D8F8140050
:10DAF0007238012824D8D8F818003A2801D07D2897
:10DB00001ED1D8E91921881810F8010C3D2809D137
:10DB1000D21A19442846FFF7F9FDD8F86420013AD3
:10DB2000C8F8642058462921FFF71CFE2C215846CE
:10DB3000FFF718FEC3E721F020005B280CD101326B
:10DB4000C9B25846CDE90232FFF70CFE4046FEF757
:10DB500029FBDDE90232BEE75D2808BF02F1FF3292
:10DB6000EEE7BBF1780F09D8BBF15B0F0ED8BBF124
:10DB7000220F79D057D8BBF10A0F51D0ABF1300149
:10DB8000072900F2C2804FF0030BB5E0ABF15C0255
:10DB90001C2AF3D801A353F822F000BF69DC000867
:10DBA0007DDB00087DDB00087DDB00087DDB0008F5
:10DBB00011DC000845DC00087DDB00087DDB000887
:10DBC0007DDB000855DC00087DDB00087DDB0008FC
:10DBD0007DDB00087DDB00087DDB00087DDB0008C5
:10DBE0007DDB00084DDC00087DDB00087DDB0008E4
:10DBF0007DDB000841DC00087DDB000849DC000813
:10DC000059DC000851DC00087DDB0008D1DC00088D
:10DC1000072198F84C200C2A79D12846FFF7A9FD56
:10DC20004FF0000B1EE7BBF1550F15D0A6D8BBF186
:10DC3000270F19D0BBF14E0FA0D1284807F0DEFC0A
:10DC40000D21E6E70821E4E70921E2E70A21E0E700
:10DC50000B21DEE70C21DCE798F84C200D2A05D1DA
:10DC60005C212846FFF785FD5946D2E7BBF1750FC9
:10DC70000CBF4FF0040B4FF0080B00211CE0404696
:10DC80000291FEF78FFAD8F810207F2A05D8144B9E
:10DC90000299985C10F0400F04D1012288F84C20C2
:10DCA0000021B6E7303A092A88BF22F020024FEA65
:10DCB000011188BF073A1144BBF1010BDFD2481CA8
:10DCC000AED0B1F5881FA4D3012288F84C20A7E775
:10DCD0004FF0020BD1E700BF0D47030816470308BA
:10DCE0006860030840460291FEF75CFAD8F81020FD
:10DCF0000299303A02EBC101D8F81420303A072AD1
:10DD0000DDD8BBF1010BEDD1D9E75C219FE6FF29FE
:10DD1000DAD80D2AD8D1C9B22846FFF723FD7FE70C
:10DD2000CB453CBF032288F84C20ABE62846FEF7E3
:10DD3000BDF9064618B95F2D01D07F2D3FD90922C4
:10DD400088F84C2008F15004E9B22046FFF70AFD9C
:10DD50004046FEF727FAD8F810104A1C0BD00846A8
:10DD6000FEF7A4F918BB5F2921D07F291FD80846E8
:10DD7000FEF7A6F9D8B92046FFF7E5FC764E054632
:10DD8000002456F8041B284625F026FD002810D153
:10DD90000F34E4B2122C88F84C407FF479AD6F4A0E
:10DDA000D2F8D421002A0CBF11220F22B9E5C9B242
:10DDB000CBE7FFF66DAD0134242CE2D168E52846AF
:10DDC000FEF77EF9044648B92E2D05D1D8F8140087
:10DDD000FEF776F9044618B9614E61E02E2D2CD17C
:10DDE0000B2288F84C2008F1500429462046FFF702
:10DDF000C0FC4046FEF7D6F90B25D8F810104B1C96
:10DE00003FF446AD76BB21F02002452A2AD1652198
:10DE1000204688F84C50FFF7ACFC4046FEF7C2F9AC
:10DE2000D8F810102B2901D02D29E6D12046FFF774
:10DE3000A0FC4046FEF7B6F9DFE70A22302D88F84D
:10DE40004C20D0D1D8F8140040F0200062381628B9
:10DE50009FBF444CC440E44304F0010484F0010437
:10DE6000E6B2C0E70846FEF721F940B90846FEF7DA
:10DE700027F920B92E2909D188F84C50D6E72E2948
:10DE8000FAD021F020024A2AD0D1F5E75F29D0D07C
:10DE9000FEE4652F01D0632F00D101360134013635
:10DEA00037780FB1BD42F4D14046FEF77BF90FB988
:10DEB000012236E5212F08D1D8F810203D2AF7D1CC
:10DEC0004046FEF76FF93A222BE52E2F11D1D8F8F4
:10DED00010202E2A03D1D8F814202E2A01D05D223A
:10DEE0001FE54046FEF75EF94046FEF75BF90E225D
:10DEF00017E50336224616F8025C632D11D0652D16
:10DF00000FD019498A5C88F84C2002F0FD01552990
:10DF100001D0592A17D1D8F834200132C8F834205A
:10DF2000B6E416F8011CD8F81000884204F1010488
:10DF300007D14046FEF736F92246652DE1D002367C
:10DF4000D9E7632DFAE7562A02D058297FF4A0AC0E
:10DF5000D8F83420013AE1E74CA103080C00002076
:10DF6000C84603080120400020A1030838B5044634
:10DF7000154662688A42084603D929448A4201D874
:10DF8000606038BDA368521A1844194425F0C8FBD4
:10DF90006268521B6260F4E737B505460846019196
:10DFA00025F00CFC044620B102466B6801992868F4
:10DFB0009847204603B030BD2DE9F74F89469DF8BC
:10DFC000301017460D9A11F0DF0F0646A2EB07023C
:10DFD0003DD0302925490CA813BF804688464FF014
:10DFE000100A4FF0010A13F0800535D002EBD2740D
:10DFF0006510A2EB6404002D35DDAB46DA455246D0
:10E0000073683068A8BF5A46414601929847019A02
:10E01000ABEB020BBBF1000FF0DC2FB17368306883
:10E020003A46494698473D44002C0CDD2544A2451C
:10E030005746A8BF2746736830683A464146E41BF6
:10E040009847002CF3DC284603B0BDE8F08FDFF8DA
:10E0500020804FF0100AC6E713F0010401D11546E5
:10E06000C9E71446D9E70025D7E700BF998303081D
:10E07000888303082DE9F04389B006460020119DEE
:10E080009DF84880139F8DF80F000AB381421ADA79
:10E090002D228DF80F204942109A08ACA2F10A00F7
:10E0A0000DF11009B1FBF3FC03FB1C12092A8CBF14
:10E0B0001218303204F8012D4C458E4661460ED0C0
:10E0C0007345EFD90BE0A80727D52B228DF80F2039
:10E0D0000029E1D130238DF81F300DF11F0415F018
:10E0E00040099DF80F301CD023B30122CDE90082F6
:10E0F0002B460DF10F013046FFF75EFF013F8146D1
:10E1000008AACDE900872B46121B21463046FFF7AF
:10E1100053FF484409B0BDE8F0836A07D8D52022F0
:10E12000D4E7002BECD004AA9442E9D904F8013CCE
:10E13000013CE5E79946E3E790F9001003780029F0
:10E14000024601DB1846704703F07F004023184267
:10E1500006D112F8013F03F0C001802904D07047B6
:10E1600020EA03005B08F2E703F03F0343EA801074
:10E17000EFE701440346002099421A4600D8704751
:10E18000127802F0C002802A03F1010318BF0130A7
:10E19000F2E710B501440246E5240020914203D87D
:10E1A000B0FA80F0400917E012F8013B30B103F0FB
:10E1B000C003802B11D10138C0B2EFE7BF2B09D9C2
:10E1C000F72B09D8D80800F0060044FA00F000F058
:10E1D0000300E3E71B06E1D510BD0020FCE7023990
:10E1E00081420B4603D31A880239002AF8D0023341
:10E1F000181A40107047994210B511D313D800EB8C
:10E20000410002EB410209B9084610BD30F8023D59
:10E2100032F8024D1B1B002B02DB04D10139F2E75F
:10E220004FF0FF30F1E70120EFE7B2EB131F70B5BD
:10E2300005464FEA131614D9901B03F00F0401EBA7
:10E24000460102460E46012A31F8023B18BF3368E8
:10E25000E3409BB2013A25F8023BF3D103B9013800
:10E2600070BD0020FCE7F0B5059F0024D21B2646B8
:10E27000A74210D100EB470C01EB47010024A2425A
:10E2800014D10CEB42031EB101212CF81210023301
:10E29000181A4010F0BD31F8145033F814C065441A
:10E2A000354420F814502E0C0134E1E731F81450B5
:10E2B00035442CF814502E0C0134E0E7F0B4049FE0
:10E2C0000025D21B2C46AF420BD100EB470601EBD9
:10E2D000470500239A420FD106EB4201F0BCFFF73D
:10E2E0007EBF31F81560344433F81560A41B20F864
:10E2F000154024140135E6E735F813100C4426F8D0
:10E30000134024140133E5E72DE9F043079CDDF8C1
:10E3100028E0DDE908760239154684464FF6FF7895
:10E32000A4EB020955B900EB42011FB1012320F80B
:10E3300012300231BDE8F043FFF751BF31F8024F10
:10E34000013D4444264405EB0904AC4296BF33F832
:10E35000024B4FF6FF744444744486EA040E17FAE5
:10E360008EF72CF8027B4FEA144E360C3F0CD9E79F
:10E3700028B103789B0702D48068FEF715BE70476A
:10E3800010B5044638B18068FEF70EFE2046BDE8A1
:10E390001040FEF709BE10BD38B50229044680685A
:10E3A00038BF02210D4618B12368B1EB930F07D98E
:10E3B0006900FEF7CDFE2368A06065F39F0323602C
:10E3C00038BD38B504460C20FEF7A2FD236822783C
:10E3D000054602F00102C3F39D0023F0030313433B
:10E3E0002B6063686B604000FEF792FDA8602268B6
:10E3F000A168C2F39D02520025F062F9284638BD9B
:10E4000038B505460C464968FFF7C6FF22782B78D9
:10E41000A86862F300032B7063686B606268A16890
:10E420005200BDE8384025F04BB973B50C4616468E
:10E430000546D2E90132D1E90110FFF7DCFE0028E0
:10E44000BEBF234634461E46237832786168534067
:10E45000DB071BD401312846FFF79EFF736800934A
:10E46000D4E90121B368A868FFF7FDFE686023784E
:10E470006A68C3F30003002A0CBF002303F0010302
:10E480002A7863F300022A7002B070BD2846FFF7B5
:10E4900083FF73680093D4E90121B368A868FFF78C
:10E4A0000DFFE3E72DE9F04F4B6885B004460E46BB
:10E4B00015460BB1536843B923786FF300032370FB
:10E4C0000023636005B0BDE8F08F81422ED1FFF7D5
:10E4D00078FFA5420646074600D105466B6871687D
:10E4E00020461944FFF758FF2268A068C2F39D0236
:10E4F0005200002125F028F9B368D4F808E0D6F8D6
:10E5000004900193AB68029300226B6803930EEBB7
:10E510004908F4461146039B934231D0DDF804B01C
:10E52000CDF80090ACF10200002318E0824204D143
:10E53000FFF747FF05460746D0E70027CEE730F84C
:10E5400002AF53441946029B3BF802AB33F812303A
:10E5500003FB0A130099038001391B0C00910099F9
:10E560000029ECD14146881C13B1A8F800300146BF
:10E57000A1EB0E0149100CF1020C01328046CAE7F2
:10E5800061602A78337853402278384663F300027A
:10E59000227005B0BDE8F04FFFF7F2BE10B5D0E92C
:10E5A0000121034601EB42020020914204D31B7873
:10E5B000DB0748BF404210BD32F8024D44EA00403C
:10E5C000F3E72DE9F0470546D1B19818D5E9018464
:10E5D0000026A4F1020E4FF0010C374603EB0209AE
:10E5E000B8F1000F0ED1B9B3C21A18462B7813F048
:10E5F000010FBDE8F04714BFFF21002125F0A4B8AA
:10E600001846E3E73EF8024F103744EA064695F80D
:10E6100000A0072F0AF0010A02DC08F1FF38DFE74B
:10E62000B4B2BAF1000F06D0E4435CFA84FC1FFADE
:10E630008CF4CCF3072CE4B249B100F1FF3A00F8B6
:10E64000014C53450BD0083F360A5046DFE782465F
:10E650000AF8014BCA45F5E713441A1AC6E7BDE8A4
:10E66000F0870000D0E901329FED0C0A9FED0C7A93
:10E6700002EB43039A4205D30378DB0748BFB1EEB0
:10E68000400A704733F8021D07EE901AF8EEE77A59
:10E69000E0EE077AB0EE670AECE700BF000000008A
:10E6A0000000804738B505460C460221FFF774FE8E
:10E6B000002C2B78B4BF0122002262F300032B70E0
:10E6C0004FF00003B8BF64426B6004B938BDD5E9B0
:10E6D0000132581C686022F81340240CF5E72DE93C
:10E6E000F04F0C4651688FB09046013105460293B9
:10E6F000FFF752FED8F80420A8680132520000212A
:10E7000025F022F82B7800266FF300032B706E6043
:10E71000D8F8041020460131FFF73EFE414620465E
:10E72000FFF76EFE029BA768D4F80490D3E9013A84
:10E730000193AB6803935246019B49463846FFF765
:10E740005AFD002836D1039A6060012313806B6064
:10E7500023786168C3F3000200290CBF002202F095
:10E76000010262F30003029A237098F800301278D5
:10E770005340DB071BD56B682A78003B18BF012389
:10E7800063F300022A7091B100234FF0FF310BA810
:10E79000CDE90B330D93FFF785FF0BAA29462846D9
:10E7A000FFF743FE029A21462046FFF73EFE0FB0D8
:10E7B000BDE8F08F01DA6E60CAE7019B03F1004209
:10E7C000013A4FEA420E3AF81230180406F10101FC
:10E7D00053D5B3B209F1010007EB490B00210093B7
:10E7E000C3F1100327F81910BC4660600BF1020951
:10E7F0000493CC4545D33AF81220009B02FA03F368
:10E800000493019B012B0AD90AEB0E02009B32F8FC
:10E81000022CC3F11001CA40049911430491019BD9
:10E82000C01A6860039B00F10040013803EB40030D
:10E8300006930EF102030993AAF1020A6368059395
:10E84000059A019B934229D3009B02F1004B0BF1E7
:10E85000FF3B07EB4B0B0020C3F110065F4573D95C
:10E860006FF000416B682BB103985A1830F81220F2
:10E87000002A74D06FF0004176E05B009BB20E4638
:10E88000A3E7BCF80060009B06FA03F31943049B5E
:10E890002CF8021B26FA03F189B2AAE7BBF8001094
:10E8A0003BF8022C049B42EA0142B2FBF3F2099BC3
:10E8B000ABEB0303CDE9073A00201E468646B3457D
:10E8C0000ED8BBF800100844002838D1069B23F866
:10E8D00002290693059B5A1EABF1020B6260ADE75D
:10E8E000089BB6F8009033F8021F0893009B9940EC
:10E8F00041EA1E4E1FFA8EF1514319FA80F91FFAB0
:10E9000081FC090CA9EB0C0CC1EB204126F802CBD1
:10E9100001EB2C40D3E739F802CF009B0CFA03FC43
:10E920004CEA1E4EB6F800C011FA8EF1614426F88A
:10E93000021B090CB345EED80844013AC4E7002194
:10E94000079ED1468E46F5E7BBF80020009B42FAB1
:10E9500003F10143B2402BF8021990B27EE7013B6C
:10E960006B607FE7013B63606368002B3FF4F0AEB0
:10E970005A1837F81220002AF4D0E9E67FB5064687
:10E9800001AD742085E80E00FEF7C2FA0446034686
:10E9900095E8070043F8046B83E8070001236FF054
:10E9A00001020025C4E90A320A22C4E90E23C4E99F
:10E9B0000C551420FEF7ACFA2021206404F150001D
:10E9C000FEF73AFE294604F16000FEF735FE236C9F
:10E9D000256720461D80C4E905552561FDF7E2FB4A
:10E9E0002046FDF7DFFB2046FDF7DCFB2046FEF767
:10E9F00011FFA36C012B18BF0723204618BF84F812
:10EA00004C3004B070BD30B585B001AD0446014650
:10EA1000284612F05FFE204624F0D0FE0146204634
:10EA2000FEF7A2FC95E80E00FFF7A8FF05B030BD89
:10EA300030B5058D04460022954201D8002030BD36
:10EA4000E36A03EBC20043688B42F8D00132F3E77C
:10EA500070B504460D461646FFF7EAFFC0B9E38CD1
:10EA6000228D9A4208D30633D900E06AFEF770FB84
:10EA7000E38CE0620633E384238DE26A591C02EBE7
:10EA8000C300218502F83360002343704380456052
:10EA900070BD10B501220446FFF7DAFF0378012BA1
:10EAA00005D12378012B8CBF04230223037010BDF2
:10EAB00070B504460D4610461946FFF7B9FF0378B6
:10EAC0005A1E012A05D86B6800222046BDE8704016
:10EAD0001847032B02D16B680122F6E72D684288A4
:10EAE000042B2046AC4608BF0023BDE8704018BF89
:10EAF0000123604710B404460B466278006A012A7D
:10EB000003D15DF8044BFFF7A3BF02460249606AD8
:10EB10005DF8044BFFF7CCBFE869030810B4026A44
:10EB20000446407801280B4604D15DF8044B10469A
:10EB3000FFF7AFBF606A02495DF8044BFFF7B8BF4B
:10EB4000F069030810B4026A0446407801280B46B5
:10EB500004D15DF8044B1046FFF79BBF606A024981
:10EB60005DF8044BFFF7A4BFE069030838B54368BC
:10EB70000D46044611464BB9054806F077FB294679
:10EB800060602046BDE83840FDF713BC38BD00BFCB
:10EB9000548103080B79092B73B50CBF848AC48A8E
:10EBA0004FF6FF739C42064602D11A4AFFF7DEFF7A
:10EBB000318B756A768B8E1B24F400431CD12204A2
:10EBC00011D5592128460193FDF748FC59212846C3
:10EBD000FDF744FC59212846FDF740FC5921284601
:10EBE000FDF73CFC019B422200212846FDF75BFC1F
:10EBF0000123AB7102B070BD284640220021FDF711
:10EC000052FC210A21F07F013143C9B22846FDF7A9
:10EC100025FCEDE72747030870B514460546127832
:10EC20000E46ABB132B1032A04D0134ABDE870409E
:10EC3000FFF79CBF032323702B6A616818465B684B
:10EC4000002BFBD1FFF7F4FE08B10323037070BD66
:10EC50006AB901232370036A2146586824F0C9FB6E
:10EC60002378012BF3D1054A31462846DEE7062AF0
:10EC7000EDD0034ADAE700BF404703084D470308D9
:10EC80005A4703082DE9F3414378012B04460D460A
:10EC90001AD10B79102B0CBF4FF001084FF0000870
:10ECA00008D0036A1B782BB9114A02B0BDE8F041C5
:10ECB000FFF75CBF01AA6D2105F10800FDF758FBC5
:10ECC00000260746B74202D102B0BDE8F081019BA1
:10ECD000206A53F8261000220909FFF7B9FE4346BF
:10ECE000024629462046FFF797FF0136EAE700BFB4
:10ECF00061470308014AFFF739BF00BF73470308A4
:10ED00008842F8B505460C4601D10120F8BD04F053
:10ED1000A7FE0646204604F0A3FE864201D000204E
:10ED2000F4E70F4B9E4214D16A6863689A42F6D1A9
:10ED300005F10807083400266B68B342E5D954F89A
:10ED4000041B57F8040BFFF7DBFF0028E7D0013660
:10ED5000F2E721462846BDE8F84004F0F9BF00BFBD
:10ED60003483030838B504461D46FDF78AFB2A465E
:10ED700020460249BDE8384012F07BB839C400088B
:10ED800030B41D4601EB420441EA022325B135228D
:10ED9000E14330BCFFF7E6BF34226142F9E737B503
:10EDA00004460D46C06801921946FDF7E8FC019A39
:10EDB00003462946204603B0BDE83040FFF7D2BFE6
:10EDC00010B504460B46406A14220121FFF7E7FF05
:10EDD000606A002336224FF0FF31FFF7C3FF204661
:10EDE000BDE81040FDF7F2BC0B4610220121FFF7F1
:10EDF000D6BF000070B505460C4679B3CA0705D5E5
:10EE0000BDE87040406A4910FDF708BC8B0718D078
:10EE100004F00F04022C4FEA111109D0062C0BD07C
:10EE200006291BD0BDE87040406AC9B2FDF7C2BCDC
:10EE3000BDE87040FFF75EBEBDE87040406AFFF776
:10EE4000D3BF0968406AFDF78BFB2279044B21464A
:10EE5000284653F82230BDE87040184770BD00BF07
:10EE6000106103084B682DE9F04105460E461F0A64
:10EE700001F108080024BC4201DBBDE8F08158F82C
:10EE8000041B2846FFF7B6FF6B683BB102342846E7
:10EE900056F82410BDE8F041FDF78BBA0134EAE7DB
:10EEA00010B50446FFF7DEFF606A2221BDE810407E
:10EEB000FDF717BC2DE9F74F06460C4615461F46D1
:10EEC00000212046FDF74CFC38B16DB9706A394617
:10EED00003B0BDE8F04FFDF7FABB01212046FDF776
:10EEE0003FFC20B1002DF1D103B0BDE8F08F002C24
:10EEF0004DD0A3074BD163684FEA132BDBB21E2B17
:10EF000037D1002D39D1D6F80C8008F10103F36018
:10EF10000BF1FF3304F1080A4FF00009009385F06C
:10EF20000102009B4B450FDC0BF10101304654F808
:10EF300021103B462A46FFF7BDFF706A414603B0E9
:10EF4000BDE8F04FFDF75CBB5AF8041B0192434645
:10EF50003046FFF7AFFF09F10109019AE1E754F8E4
:10EF6000041B3B462A463046FFF7A4FF4445F6D132
:10EF7000BAE71F2B05D1002DC5D1083404EB8B084F
:10EF8000F4E7202B03D1A46885F0010598E730460B
:10EF90002146FFF72FFF706A3B463DB143224FF0F9
:10EFA000FF3103B0BDE8F04FFDF77DBA4422F6E72C
:10EFB00001F00F03022B2DE9F34705460C4605D15E
:10EFC000090902B0BDE8F047FFF7BCBD00296AD0CF
:10EFD00011F0030667D10B792C2B4CD18968FFF710
:10EFE00009FFE668002E5ED016F003085BD1776853
:10EFF000FAB28E2A334609D13F0A06F1080907F111
:10F00000FF3AC24519DC013756F827301A79312A00
:10F010001BD199682846FFF7EDFE686A0090FDF75E
:10F0200041FB0098FDF74FFB009856226FF002015C
:10F0300002B0BDE8F047FDF724BA59F8041B284692
:10F04000FFF7D8FE08F10108DBE7322A2BD19B68D5
:10F05000686A1B09CDE90003FDF724FB0098FDF762
:10F060002EFB019B009818226FF0010102B0BDE851
:10F07000F047FFF794BE2D2B15D18C689CB16368C7
:10F080001B0A022B01D1E36843B904F10807636846
:10F09000B6EB132F0FD302B0BDE8F0879A07F4D177
:10F0A0001B79AC2BF1D1074A2146284602B0BDE8B6
:10F0B000F047FFF75BBD57F8041B2846FFF778FFC2
:10F0C0000136E4E780470308F8B5026A1278072A98
:10F0D000044604D0BDE8F840164AFFF747BD8D68E6
:10F0E00045B9406A1021FDF765FB606ABDE8F8404C
:10F0F000FDF71ABB15F003021AD12B791B2B17D180
:10F10000C668EF68731CC360B9683346FFF7D2FE68
:10F11000A9682046FFF76EFE606AFDF705FB3146E1
:10F12000606AFDF76DFAF9682046FFF763FEDCE7D9
:10F130002946F9E78A47030810B504468968FFF7AE
:10F1400059FE606ABDE81040FDF7B4BA38B58D6865
:10F15000044645B9446A642229462046FDF791F9E0
:10F160000123A37138BDAB070ED12B795E2B0BD1D8
:10F17000A968FFF73FFEE9682046FFF73BFE646A97
:10F1800066226FF00101E8E729462046FFF732FECC
:10F19000646A65224FF0FF31DFE72DE9F347C66867
:10F1A0000D46731CC36004460021A868FDF7D8FA19
:10F1B0000246E0B9E768A9687B1CE36020463B464D
:10F1C000FFF778FEE9682046FFF714FEA8680121E2
:10F1D000FDF7C6FAC8B92B690BB96B691BB1606A38
:10F1E0003146FDF774FA606A3946FDF709FA01AA5B
:10F1F000712105F11000FDF7BBF8002781464F454E
:10F200000AD169692046FFF7F5FD606A3146FDF7CE
:10F21000F7F902B0BDE8F087019B53F82780002181
:10F22000D8F80800FDF79CFA0246F0B9D4F80CA013
:10F23000D8F808100AF10103E36020465346FFF7AF
:10F2400039FED8F80C102046FFF7D4FDD8F8080096
:10F250000121FDF785FA0028D7D1606A3146FDF714
:10F2600036FA606A5146FDF7CBF90137C7E72DE959
:10F27000F047C668D0F814A0B0F81A9086820D4600
:10F28000B31CC36006F10108038BA0F81680044686
:10F2900043830021A868FDF763FAE8B9E768A86826
:10F2A0007B1CE3600121FDF75BFA18B9606A4146F7
:10F2B000FDF70DFA606A3946FDF7A2F9E9682046C4
:10F2C000FFF798FD606A4146FDF79AF9A9683B4649
:10F2D00001222046FFF7EEFD2969C4F814A020465C
:10F2E000A4F81A90FFF786FD606A3146BDE8F04742
:10F2F000FDF786B92DE9F04F2DED028B83B0C5687F
:10F3000001921E460E9B08EE103AAB1C0446C360E9
:10F310000F4601222946FDF70CF939462046FFF732
:10F3200069FD676A05F1010A4A2238465346002101
:10F33000FDF7B9F80123BB71606A2946FDF760F952
:10F34000606A0421FDF791F8D4F80C8008F10103FC
:10F35000E3600027019B9F4219DB2046FDF79AF8E6
:10F36000606A6FF00201FDF780F8606A5146FDF7B0
:10F3700047F918EE101A2046FFF73CFD606A414637
:10F3800003B0BDEC028BBDE8F04FFDF739B9334651
:10F39000D4F80C901A68009209F10102E260009A18
:10F3A000D2F808B004360137BBF1000F44D1019AFE
:10F3B000BA4234D1606AFDF77DF90025AB46009B67
:10F3C0002046D968FFF716FDB5B1606A1021FDF738
:10F3D000F1F9606A5946FDF713F9606A1021FDF7EB
:10F3E000E9F929462046FFF799FB20462946FFF711
:10F3F000A9FB2046FDF74EF8606A009043464A227A
:10F400000021FDF750F80098012585714946606A92
:10F41000FDF7F6F8606A2946FDF727F89AE72046D7
:10F420001E4A1968FFF7A2FB204603B0BDEC028B11
:10F43000BDE8F04FFDF72EB81BF003052BD19BF86C
:10F440000420762A5B4603D1DD68DBF808B02D097D
:10F45000606AFDF72BF959462046FFF7CBFC606A3E
:10F460000821FDF73EF9606A4B4644224FF0FF3118
:10F47000FDF719F8002D9DD029462046FFF74EFBD9
:10F48000D4F80CB00BF10102E2605946022220468A
:10F49000FDF74FF893E70025DAE700BF964703082A
:10F4A0002DE9F043C76885B016467A1CC2600D4648
:10F4B000022239460393DDE90C980446FDF739F83A
:10F4C000039BF6B9606A0321FCF7CFFF294620466B
:10F4D000FFF790FC606A6FF00201FCF7C6FF606AFC
:10F4E0001021FDF767F9606A3946FDF789F8204673
:10F4F0004146FFF77FFC204605B0BDE8F043FCF72E
:10F50000C9BFCDF80090324629462046FFF7F2FEEB
:10F51000E5E77FB5CD682B79782B06460C4609D1F7
:10F52000AB6801930023009389681A46FFF7B8FF80
:10F5300004B070BD742B03AA4FF0770116D105F10A
:10F540000800FCF715FF2B6902463BB9EB680093F6
:10F55000A168039B3046FFF7CDFEE9E79B68019366
:10F56000EB680093A168039B3046DFE704F10C00D1
:10F57000FCF7FEFE00230246E9E72DE9F041C568ED
:10F58000D1F80C800E46AB1C04460022D8F80810B7
:10F59000C3602B46FFF78EFC6F1CB1682046FFF757
:10F5A00029FC606A3946FDF792F8606A2946FDF742
:10F5B00027F8606A4FF0FF31FCF757FFD8F80C10BE
:10F5C0002046FFF717FC606A3946BDE8F041FDF7B9
:10F5D00017B8000001F00F03022B70B504460D466A
:10F5E000164602D01E4AFFF7C1FA31462046FFF701
:10F5F00001FC606AFDF75AF86378012B4FEA151693
:10F600000FD1226A1378033B032B0AD85068314686
:10F61000FFF73FFA0278032A09D1206A3146FFF743
:10F6200017FA31462046BDE87040FFF777BA206AE6
:10F6300000223146FFF70CFA236A5B685B68002BF7
:10F640000CBF0123002304D00278012A04BF00224A
:10F650000270024629462046FFF7DEFAE1E700BFC6
:10F66000A7470308D1E90212FFF7B4BF2DE9F84319
:10F67000C7684E687B1C5FFA86F90446C360360A89
:10F6800001F108054FF00008B04505DB606A394616
:10F69000BDE8F843FCF7B4BF55F8041B204608F159
:10F6A0000108FFF7A7FBB045F0DAB9F11E0F606A59
:10F6B0003B460CBF452246224FF0FF31FCF7F3FEDC
:10F6C000E2E710B504468968FFF794FB606AD3222D
:10F6D000BDE810400021FCF7D4BE2DE9F0414E6892
:10F6E00004460D46360A8968FFF784FB032E83BF64
:10F6F000D4F80C8008F10103E3604FF00008012703
:10F700007B1CB3421CDB032E4CDDE568606A6B1C7E
:10F71000E3602946FCF7DBFF606A4146FCF770FFB7
:10F720000121606AFCF7A1FE606AFCF7C8FF606A0D
:10F73000FCF7C0FF606A2946BDE8F041FCF760BFF6
:10F74000296920460237FFF755FBB74205DA606AA0
:10F75000FCF7ACFF606AFCF7B6FFE968606A01F08D
:10F760000F030A2B13D1C1F3071126291ABF35390C
:10F77000C9B20621FCF7B5FFB74206DA606A434614
:10F7800046224FF0FF31FCF78EFE0835B8E70B79C3
:10F79000852B01D13221EDE78B680BB90721E9E711
:10F7A0003321E7E7BDE8F0812DE9F0414D680C46D3
:10F7B00089680646FFF71EFBA5F10D085FFA88F879
:10F7C0002D0A0C340127AF4201DBBDE8F08154F86B
:10F7D000041B3046FFF70EFB706A4146FCF781FFC1
:10F7E0000137F0E7F8B54B680C46896805461F0AF3
:10F7F000FFF700FB0C3400260236B74204F1080480
:10F8000000DCF8BD54F8041C2846FFF7F3FA54F85E
:10F81000081C686A09092539C9B2FCF762FFEBE7E1
:10F8200038B50C46C9680546FFF7E4FAA268686A6D
:10F83000C2F30712342A1ABF403AD2B20222303A37
:10F84000BDE83840D2B20021FCF71BBE10B504461B
:10F850008968FFF7CFFA606A5522BDE810404FF083
:10F86000FF31FCF70EBE38B50C460546C968FFF7F8
:10F87000C1FAA1682846BDE83840FFF7BBBA0000CE
:10F8800038B5026A1278072A04460B4606D0022AC7
:10F8900004D0BDE83840114AFFF768B99D684DB9FA
:10F8A000606A1021FCF786FF606A0021BDE83840DD
:10F8B000FCF744BFAB070BD12B79AF2B08D1204607
:10F8C000A968FFF797FA2046BDE83840FCF77EBFED
:10F8D00029462046FFF78EFAE6E700BFB247030845
:10F8E00011320B46D2B20121FFF759BAF8B5174BC6
:10F8F000D3F8D47104460D4637BBC6688968731CBB
:10F90000C36001223346FFF7D5FA1F21606A012246
:10F91000FFF7E6FFE96841B12046FFF76BFA606A3E
:10F920003B463A460121FFF72BFA656A4FF0FF315B
:10F9300028466522FCF7A5FD0123606AAB713146BC
:10F94000BDE8F840FCF75CBEF8BD00BF0C0000202D
:10F9500016320B46D2B24FF0FF31FFF720BA193200
:10F960000B46D2B20021FFF71ABA0B461322002130
:10F97000FFF715BA8B072DE9F14F04460D461646E1
:10F9800011D001F00F03022B17D1D7074FEA111145
:10F9900004D401B0BDE8F04FFFF7C0B801B0BDE836
:10F9A000F04FFFF7A7B84968CBB22D2B00F081804C
:10F9B0000BD8062B0ED02C2B13D0524A29462046AA
:10F9C00001B0BDE8F04FFFF7D1B82E2B00F08580D5
:10F9D0009D2BF2D1002EF0D105F10802090A204634
:10F9E00080E0022A02D0A968FFF704FAEF68002F2E
:10F9F000E3D017F00309E0D17B68DAB28E2AB8466B
:10FA00000DD1022E4FEA132805D007F1080A08F19C
:10FA1000FF3BD94510DB08F1010857F8288098F81A
:10FA20000430312B25D1022E0ED1606AFCF74BFE3B
:10FA300056226FF0020116E05AF8041B2046FFF729
:10FA4000D9F909F10109E4E7D8F808102046FFF7D1
:10FA5000D1F9012EECD158220221606AFCF711FD88
:10FA600055224FF0FF31606A01B0BDE8F04FFCF75E
:10FA700008BD322BA1D1012E606A0AD1FCF716FE17
:10FA8000D8F80810606A090901B0BDE8F04FFFF727
:10FA90006CBF022E01D1FCF712FED8F80830606A64
:10FAA0001B0918226FF0010101B0BDE8F04FFFF70C
:10FAB00076B9AA68002A80D0002E7FF47EAF516804
:10FAC000090A022907D1D3682BB1980703D11B7902
:10FAD000AC2B3FF472AF083281E7002A7FF46DAFA0
:10FAE000A96821B901B0BDE8F04F00F00DB88E074C
:10FAF00003D10B79922B0A46E1D005F108020121CE
:10FB00006DE700BFA74703082DE9F7430D4601390C
:10FB1000044690464FEA012900264FF0FF3719F5B9
:10FB2000807F0CD17B1C04D1606A2B463022FFF70A
:10FB300019F90026AE4221D103B0BDE8F08358F890
:10FB400026307BB19A070DD11A79222A0AD10137C2
:10FB50000CD1606A019149EA06033122FFF702F9EC
:10FB6000019937460136A9F58079D8E7094A19463F
:10FB7000204603B0BDE8F043FEF7F8BF58F8261062
:10FB8000B74208BF896800222046FFF7F3FE01361E
:10FB9000D0E700BFBD4703082DE9F04F8B682DED7E
:10FBA000028B03F00F03022B87B004460E4640F091
:10FBB000F380CB68002B00F0EF80980740F0EC80DA
:10FBC0001A792C2A40F0E8809A6802F00F01022985
:10FBD00040F0E28012097C2A40F0DE80DB681A796E
:10FBE000302A40F0D9809B68059304AAA42105A877
:10FBF000FCF7BEFB431E022B00F2CE8004990128C5
:10FC00000A6800F0BB800228D1F804A000F010813F
:10FC10008D68E90740F1C0806B0800F0BD8032B10B
:10FC2000930704D11179A639022940F2B580BAF1BF
:10FC3000000F08D01AF0030F05D19AF80410A63966
:10FC4000022940F2A980B3687769218B08EE103A47
:10FC50003369E66808EE903A63690293638B019317
:10FC60006183731C311D1AF00108039306F1020B26
:10FC7000A682E38206F10309E16005D151462046E0
:10FC80000392FFF7B7F8039A11462046FFF7B2F840
:10FC9000606A4946FCF71BFD5946606AFCF7B0FCF8
:10FCA000606AFCF703FD002218EE101A2046FFF7E9
:10FCB00061FE18EE901A2046FFF79CF8606A711CEE
:10FCC000FCF79EFC29462046FFF794F8606A0E2157
:10FCD000FCF707FD606A4946FCF792FCB8F1000F9B
:10FCE00050D1606A58220221FCF7CBFB606AFCF716
:10FCF000E6FC002DACBF00210121606AFCF7F1FC9D
:10FD00005B46606A43224FF0FF31FCF7CCFB029B5D
:10FD10006361019B6383002F3CD0606AFCF7CAFCDF
:10FD2000B8F1000F02D1606AFCF7C4FC39462046E6
:10FD3000FFF760F8E568606A6B1C2946E360FCF732
:10FD4000C6FC88F00101606A0131FCF78EFB606A35
:10FD50003146FCF755FC606AFCF7ACFCB8F1000FCB
:10FD600002D1606AFCF7A6FC1FB1606A2946FCF765
:10FD700047FC07B0BDEC028BBDE8F08F924603252F
:10FD8000024654E7606AFCF791FC51462046FFF7B3
:10FD900031F8AEE73D46DAE7E568238BB4F81A9010
:10FDA00063836FEA4542EB1C6F1C6FEA5242D4F842
:10FDB00014A0E360F168A2822046E782FFF71AF8F8
:10FDC000606A5F220321FCF75CFB05F10208606AB0
:10FDD0003946FCF715FC4346606A4B220121FCF7CB
:10FDE00062FB0022B1682046FFF7C4FD316920465E
:10FDF000FFF700F8606A3946FCF769FC606A414623
:10FE0000FCF7FEFB606A6FF00301FCF72EFB7169E3
:10FE1000C4F814A02046A4F81A90FEF7EBFF606A1D
:10FE2000294607B0BDEC028BBDE8F04FFCF7E8BBFC
:10FE30000325F4E62DE9F7430446904699460F461C
:10FE400029B9194603B0BDE8F043FEF7D3BFC66831
:10FE5000731CC360156895B315F003022FD12B797D
:10FE60007B2B2CD1A9680192FEF7C4FF019A314681
:10FE70002046FCF75EFB019AE9682046FFF77AFD11
:10FE80004B4608F10402791E2046FFF7D3FF606A53
:10FE900001901021FCF78EFC01983146FCF7B0FB75
:10FEA0005C220221FCF7EDFA01986FF00301FCF7E8
:10FEB000DCFA204603B0BDE8F043FCF7EBBA294674
:10FEC0002046FEF797FF204600223146FCF731FB23
:10FED000606AFCF7EFFBD3E737B50C46054601AA8D
:10FEE0007A2104F10800FCF743FAE368019A01461D
:10FEF0002846FFF79FFF03B030BD2DE9F041CD68E4
:10FF000004460E461DBB0378A3B1036A1D788DB964
:10FF1000D021FEF7EFFDB1682046FEF76BFF606A67
:10FF20002B462A460121FEF72BFF606ABDE8F0410F
:10FF3000FCF7C0BBB168880700F0B68001F00F0382
:10FF4000022B40F0B8802046FEF754FFEDE7A907EA
:10FF500040F0B5806B68DAB25B2A14D1ED68002DF1
:10FF600040F0AB80006A0378072B40F0A480B168B2
:10FF700001F00F03022B40F09E800422BDE8F04107
:10FF8000D140FEF765BD562A11D10122B168FFF7B5
:10FF9000F1FCE9682046FEF72DFFA968606A0909AF
:10FFA0003F39C9B2FCF79DFB0222B16877E0572ABE
:10FFB00040F083801B0A5F1E013355F82310FEF7C3
:10FFC00019FF002F02DD606AFCF770FBB1680022A8
:10FFD0002046FFF7CFFC08350026BE426BDA01361B
:10FFE000BE4202DA606AFCF761FB55F8041B00228E
:10FFF0002046FFF7BFFCF0E76B68DAB2062A5ED155
:020000040801F1
:10000000B768002F5BD0BA0759D17A68D1B20629F8
:1000100055D11B0AB3EB122F4FEA12284FD1A8F18A
:100020000203012B4BD8BB6823B1980702D11B797F
:10003000222B44D0FB6823B1990702D11B79222BD4
:100040003DD0B8F1020F06D03B6923B19A0702D127
:100050001B79222B33D0A9682046FEF7CBFEE96836
:100060002046FEF7C7FEB8F1030F06D120462969E6
:10007000FEF7C0FE606AFCF726FB606AFCF71FFB18
:10008000B96800222046FFF775FCF9680022204677
:10009000FFF770FCB8F1030F0DD13969002220463B
:1000A000BDE8F041FFF766BC00293FF44CAF0B7987
:1000B0003A2B7FF448AFBDE8F081AB079CD02946CE
:1000C0002046FEF797FE00226FE72DE9F843C76848
:1000D00004461E46BB1C0D46C3603946406A07F104
:1000E00001089146FCF78CFA606A43464B220121D5
:1000F000FCF7D9F9A96800222046FFF73BFC2D69DF
:100100008DBB49462046FEF775FE236A1B78062BF9
:1001100015D1606A2946FCF711FB606AFCF7CAFA40
:10012000606A3946FCF7D3FA606A4146FCF768FA20
:10013000606A6FF00301BDE8F843FCF796B9B600BA
:10014000032B606A06F105060BD0042B08D00223AE
:100150002E4443EA86032F22E943FEF703FEDFE73E
:1001600001252B46F4E72B79AD2B07D1A9683B4637
:1001700000222046FEF79EFEED68C1E7E9682046B2
:10018000FEF738FE606A5F220321FCF77AF9731CE0
:100190004A4629462046FFF798FFC1E72DE9F04F70
:1001A00085B0814600AF0C4611B90123136013E0FE
:1001B00011F003061BD10B79682B06D1CB681B0904
:1001C00013608C68002CF0D0012604F00F03022B82
:1001D0000FD12309002EE9D0D9F824001B224FF0BB
:1001E000FF31FEF7DCFD1437BD46BDE8F08F002679
:1001F000EBE716B9A3681B091360656804F1080AE8
:100200002D0A05F1FF3BD0460AEB850558F8040B93
:100210000009FDF753F9A8458344F7D10BF1070313
:1002200023F00703ADEB030D6B4698465AF8040B19
:100230003B6007F10C010009FDF757F9FA687A6095
:100240000146404623F03CFA7A683B68AA45904450
:1002500018D159461846FDF787F81B2203464FF080
:10026000FF31D9F82400FEF79AFD002EBBD00C34E4
:10027000A542B8D054F8041BD9F824000909FFF7A7
:1002800074FBF5E74FF02E0208F8012BCEE737B5E7
:1002900004460D468022406A0121FCF7F2F8606AAC
:1002A0001021FCF787FA01AA29462046FFF776FFBE
:1002B00001992046FEF732FC03B030BD2DE9F74F1F
:1002C000044690460F4629B9194603B0BDE8F04FE1
:1002D000FEF790BDC668321DC260D8F8005006F126
:1002E000010A06F1020B06F10309002D00F0CF8090
:1002F00015F0030240F0CB8029797B2940F0C780BC
:10030000A968CDE90032FEF775FD606AFCF7CEF909
:10031000A8212046FEF754FD019AE9682046FFF720
:1003200029FB009B0093022231462046FCF701F98D
:10033000606A0321FCF799F8009B08F10402791E1A
:100340002046FFF7BBFF606A6FF00201FCF78DF8F3
:10035000606A1021FCF72EFA606AFCF7B0F9606A57
:100360005146FCF7B4F93146606AFCF749F9606A16
:10037000FCF79CF9606A01222121FFF7B1FA606A5B
:100380000821FCF7AEF95B4644224FF0FF31606A6A
:10039000FCF789F8606AFCF789F9606AFCF793F961
:1003A000606AFCF78CF9A92314220121606AFEF728
:1003B000F6FC606AFCF787F9606AFCF784F9606A0A
:1003C000FCF774F9606A0A21FFF7CFFA606AFCF75C
:1003D00076F9606A1021FCF7EDF9606A0323362292
:1003E0006FF00301FEF7BEFC2046FCF7EFF94B4629
:1003F0004422606A4FF0FF31FCF755F8606AFCF761
:1004000059F9606A1021FCF7D5F9606A4946FCF792
:100410005EF9606A0221FCF728F85946606AFCF729
:10042000EFF8606AFCF74FF9606AFCF74CF9606A14
:100430005146FCF7E5F8A9231422606A0121FEF772
:10044000AEFC1021606AFCF7B5F9606AFCF72EF982
:10045000606AFCF72BF9032336226FF00301606A10
:10046000FEF780FC2046FCF7B1F9606AFCF722F940
:10047000606A4FF0FF31FBF7F8FF606A4946FCF70E
:10048000BFF8204603B0BDE8F04FFCF703B829469B
:1004900020460093FEF7AEFC606AFCF707F92046A1
:1004A000A821FEF78DFC606AFCF704F939E789683A
:1004B000406A0909FFF759BA70B4C4682678042E57
:1004C0001D4608BF6668638808BF46F823505D1C58
:1004D000658070BCFEF746BC10B4044643B90F2AD1
:1004E00006D8503A5DF8044BD2B20121FBF7C9BFE0
:1004F00003F12401204613465DF8044BCAB20121E2
:10050000FEF730BC2DE9F74F05460C46904699465C
:100510001BB1CB8A43F00803CB822B6AA4F81E8060
:100520001B78002B4AD159EA0802686A236948D12E
:100530003222012103B0BDE8F04FFFF7BDBFDB6AF7
:1005400003EBC70B13F83730053B012B1AD84FF0DC
:10055000000A14E0E36A03EBCA0213F83A30062BF0
:100560000BD1DBF804105368994206D1BBF8022086
:10057000686A0023FFF7B0FF01360AF1010A238DF4
:100580005345E7DC01372B6A1A8DBA42D7DC002EBF
:10059000C9D059EA0802686A236901900BBFC6F105
:1005A0000101F14320222122FFF786FFF4B20198D6
:1005B000214603B0BDE8F04FFBF750BF00273E4691
:1005C000E1E733224FF0FF31B4E770B54378CE68EE
:1005D000012B0446154606D1036A0A461B8B2946A1
:1005E000FCF7A2FC7061002371691A462046FFF7F0
:1005F00089FFF1682046FEF7FDFB062D04D1606AF5
:100600005E220021FBF73DFF0023606A1A46BDE829
:1006100070400121FEF7B4BB2DE9F04F87B0CDE962
:100620000221044605AAA42103A81D46FBF7A0FE4B
:100630004FF000080190C146474646464FF0010B77
:10064000019B984514D11FB1606A4946FBF7E6FF4C
:10065000029B606A002B77D005EB460145EA062332
:10066000002F6FD001313722C943FEF77BFB13E027
:10067000059B53F828A0BAF1000F5AD01AF0030FC7
:1006800057D19AF80420A62A1AD1B80707D5314ABB
:1006900051462046FEF76AFA07B0BDE8F08FB8F180
:1006A0001D0F01D92C4AF3E70BFA08F2DAF808100B
:1006B00047F0010749EA02092046FEF79BFB1FE0CD
:1006C000A72A0DD1606AFBF7EDFFDAF8081047F0B2
:1006D00002072046FEF78EFB013608F10108AFE75E
:1006E000A82A26D1DAF80C2072B191070CD1117921
:1006F000AA2907D19268DAF808102046FEF76AFFA7
:100700000135EAE7AC290ED0DAF8081001F00F0243
:10071000022A01D0114ABBE70909606AFEF764FBAF
:10072000DAF80C10D5E7062251462046FFF74DFFB8
:10073000E6E7BB0701D50A4AAAE70EB1094AA7E7CF
:100740005146B9E736228FE73B4632462946FEF747
:1007500017FBA1E7C4470308CB470308D3470308A7
:10076000E0470308E747030870B50D4641780129C3
:100770000446134603D12A46FCF7D6FB6861606A3B
:1007800054220121FBF77DFE6E6900231A46314693
:100790002046FFF7B7FEB18A606AFEF725FBE968DD
:1007A00029B18B0703D10B79A32B08BF0021204669
:1007B00002230022FFF730FFB08A70BD036A10B534
:1007C0001A8B0446FFF7D0FF01462046BDE81040D3
:1007D000FEF7A4B9002389681A46FFF71DBF10B4BD
:1007E00004464BB90F2A07D8403A5DF8044BD2B201
:1007F0004FF0FF31FBF745BE03F1260120461346BB
:100800005DF8044BCAB24FF0FF31FEF7ABBA03F10B
:1008100028011346CAB20021FEF7A4BA022A02F147
:100820002A020B46D2B214BFC1F101010121FEF729
:1008300099BAF8B54E6801F10804360A054604EB8A
:100840008607BC4206D1686A31460022BDE8F840FE
:10085000FFF7E4BF54F8041B2846FEF7CBFAF0E795
:1008600001F00F03022B70B504460FD00B79492B12
:1008700001D04F2B02D10123A37070BD4A2BFCD0B5
:10088000502BFAD0482B0DD10D696DB9A378002BF0
:10089000F3D1638A002BF0D020461A4ABDE870409D
:1008A000FEF764B9CD68F0E7A3780BB3238A8E68AE
:1008B00001339BB2012B23820AD1618A606AA1B104
:1008C0000022FFF7ABFF606A02220021FFF7A6FFBC
:1008D00029462046FEF78EFA606A3109FEF784FA4F
:1008E000606ABDE87040FBF71ABFFBF7DBFEEAE782
:1008F000638A0133638229462046BDE87040FEF7D3
:1009000079BA00BFEE470308F8B504460E46114613
:100910001A46002385780769837003610D4BFBF746
:1009200051FD6368A3B9618A39B1228A2AB9606A24
:10093000FFF774FF606AFBF7B5FE238A628A3146CF
:100940002046FFF7DFFD003D18BF0125A570276198
:10095000F8BD00BF6108010870B513464278012A4E
:1009600005460C4604D10A460721FCF7DDFAA061D2
:10097000A669E268284646233146FFF7C5FFB08ADC
:1009800070BD00002DE9F04F044685B00F4602AA65
:10099000422107F10800FBF7EBFC236ADFF8E0A037
:1009A0001E8B00258346A9465D4509D1F9680B7960
:1009B000032B3DD132462046FFF7CEFF054645E0EA
:1009C000029B53F82530009303AA6C2103F1080021
:1009D000FBF7CEFC039B19680A09732A80460CD0EA
:1009E0002046FEF707FA0123434516D3009BD9683A
:1009F00059B12046FEF7FEF907E0022807D052461B
:100A00002046FEF7B3F809F101090135CCE7596832
:100A10000B09412BF3D10126F5E7039A606A52F8DE
:100A2000231001930909FEF7A0FF019B0133DBE7C7
:100A3000442B17D18F68324639462046FFF78CFF8A
:100A4000BA69D38A43F001030546D3820026ABEB93
:100A50000909B1450BD829462046FEF75FF805B0D5
:100A6000BDE8F08F32462046FFF77EFEA6E7002362
:100A7000606A1A460121FEF783F90136E9E700BFF3
:100A800005480308036A10B51A8B0446FFF764FF94
:100A900001462046BDE81040FEF740B82DE9F04F72
:100AA0008D682DED028B2B79032B87B004460CD17A
:100AB0002946FFF7E7FFAA69D38A43F00103D382EF
:100AC00007B0BDEC028BBDE8F08F026AD28AD20774
:100AD00008D4614A294607B0BDEC028BBDE8F04F4F
:100AE000FEF744B8162B40F0A980C668E968B31C2D
:100AF00008EE103A331DC360FEF77CF9606AAA2342
:100B000014220121FEF74BF9606A362200234FF0D0
:100B1000FF31FEF727F9D4F80C9063690293638BD9
:100B2000019309F1020309F10108E360238B638358
:100B300006F1010B606AA4F814904146A4F81680EF
:100B4000FBF75EFD012259462046FBF7F2FC606A86
:100B5000FBF7ACFD2046AC21FEF732F9A968204630
:100B60000022FEF707FF18EE103A4A22606A03904F
:100B70000021FBF798FC0398012787715946606AAA
:100B8000FBF73EFD606A0421FBF76FFC606AFBF730
:100B90008DFD3A46606A40F2B711FEF7A1FE06F1FC
:100BA000030A606A0821FBF79CFD5346606A4422F1
:100BB0004FF0FF31FBF777FC606AFBF77BFDD4F861
:100BC00024B04A22334658460021FBF76CFC606A89
:100BD0008BF806705146FBF713FD3946606AFBF748
:100BE00044FC2046FBF756FC606A6FF00201FBF7FD
:100BF0003CFC18EE101A606AFBF702FD29692046DA
:100C0000FEF7F8F8606A4146FBF761FD029B6361FD
:100C1000019B6383606A3146FBF7F2FC69692046F9
:100C2000FEF7E8F8606A4946FBF7EAFC606A07B03D
:100C3000BDEC028BBDE8F04FFBF73CBD05AA7A2165
:100C400005F10800FBF794FBEB68059A0146204686
:100C5000FFF734FB34E700BF1D48030870B5437845
:100C6000012B05460C4606D1036A0A461B8B02215E
:100C7000FCF75AF92061A268216928464C23BDE897
:100C80007040FFF741BE00002DE9F3418D6805F08B
:100C90000F030A2B04460E4606D0002D30D0AB07BA
:100CA0002ED12B79652B1ED1019500256A46652131
:100CB00001A8FBF75DFB009B002103EB800040F2E5
:100CC000DA52984215D1F26840F22A439A4233D15F
:100CD000236A1F78B7B1374A3146204602B0BDE8D3
:100CE000F041FDF743BF622B0AD1AB680193ED6879
:100CF000DCE753F8047B97420CBF01310331E0E796
:100D00000021E0E7606AFBF789FC606A0521FEF7D5
:100D10006BF8606A3A460121FFF780FD01AA294677
:100D20002046FFF73BFA606A69224FF0FF31FBF77C
:100D3000A8FB02B0BDE8F081606AFBF76FFC06F12A
:100D40000C0001AA6A21FBF713FB00270646B742F5
:100D5000606A0FD100223146FFF760FD29466A46DE
:100D60002046FFF71BFA0025B542606A0BD1FBF75E
:100D7000A1FCDEE7019B53F8273099680909FEF7CB
:100D800033F80137E3E7019B53F82580D8F8087062
:100D90003F0901213B461C22FEF701F8D8F80C1050
:100DA00029B939462046FDF7B9FE0135DCE70909C6
:100DB000F8E700BF344803088968034619B9406A58
:100DC0000A46FFF72BBD4A68120A022A0AD1CA68EE
:100DD00042B112F0030F05D11279AC2A02D10622DA
:100DE000FFF7F3BB1846FFF724BD38B58C680546FE
:100DF00034B901222146686ABDE83840FFF70EBDCC
:100E0000A1071BD16368DAB2922A17D11B0A022B01
:100E10000CD1E36853B19A0708D11B79AC2B05D1EB
:100E200021460322BDE83840FFF7CFBB21462846C4
:100E3000FEF718F861680122090ADCE72146284616
:100E4000FDF7D8FF01221146D5E700002DE9F74351
:100E50008D68044616464DB9002A68D002222946FC
:100E6000606A03B0BDE8F043FFF7D8BC15F0030794
:100E70007DD12B79372B0FD122B1406A022201217B
:100E8000FFF7CCFC20462946FDF7B4FF606A03B0AB
:100E9000BDE8F043FBF743BC9F2B68D1EB681A79A0
:100EA000A12A52D1A22101AA03F10800FBF760FA9E
:100EB000A9688046F1B18B071CD10B79372B19D16A
:100EC00026B1411C0222606AFFF7A8FCA9682046EF
:100ED000FDF790FF606AFBF722FC4FF001094745E0
:100EE0000ED1B9F1000F22D1606A0322791CFFF7FD
:100EF00095FC1CE02046FDF77DFF4FF00009EEE772
:100F0000019B53F82710A9B18E0713D10E79A6F1D2
:100F10003700464246412046FDF76CFFB9F1000F0D
:100F20000FD04EB9154A29462046FDF71FFE03B0E3
:100F3000BDE8F0830026EEE7606AFBF7F0FB0137BF
:100F4000CDE7002EFBD00E4AEDE7AB685BB19A0708
:100F500009D11B79372B06D10422294603B0BDE8FD
:100F6000F043FFF732BB052229462046F6E7294623
:100F70002046FDF73FFF0322012171E746480308A1
:100F8000544803082DE9F7430C4689680546FDF7E8
:100F900031FFE668002E58D07768296AFBB20978DD
:100FA0008E2BA36819BF04F10C0601273F0A0836EF
:100FB000072903F00F024DD1022A49D11A099A2AB2
:100FC0004AD132681179302946D19268002A43D13A
:100FD0000A212846FDF78EFD2A6AD36A128D3AB996
:100FE000404A3168284603B0BDE8F043FDF7BEBD76
:100FF0005978C9070DD559682846FDF77BFD022FA2
:101000000AD80023686A1A460221FDF7B9FE0124B6
:1010100019E0013A0833E2E773681A79322AF0D10D
:10102000B4682279302AECD19B68686A1B091522C2
:101030004FF0FF31FDF7B3FEA168002301222846DF
:10104000FFF7EAFA0324A74224D803B0BDE8F083EF
:101050000024F8E7022AFBD11B09B3F5D17FF7D1B1
:1010600033681A79302AF3D19C68002CEBD014F045
:101070000302EDD123792F2BEAD1686A019213463E
:101080001146FDF77DFE3368019A99682846FFF7FF
:10109000DDFEBCE704F10108B84556F824104FEA1C
:1010A00084031AD20A79322A17D13344D3F8049030
:1010B00099F80430302B10D18B68686A1B09142210
:1010C0000121FDF76CFED9F8081000230122284603
:1010D000FFF7A2FA08F10104B5E72846FDF78AFEFA
:1010E000A046F7E76148030810B5026A1278072A9C
:1010F00004460B4606D0022A04D0BDE81040064A3A
:10110000FDF734BD20461946FFF73CFF2046BDE8F9
:101110001040FBF75BBB00BF744803080122FFF7D8
:1011200095BE38B50B79342B04460D460CD1896831
:10113000FDF760FEED68AD685DB9606A1021FBF7F0
:1011400039FB0422022115E0406A1021FBF732FB33
:10115000F1E7AB071CD12B799A2B10D11021606AD3
:10116000FBF728FBA9680029EBD02046FDF742FEDB
:1011700004220321606ABDE83840FFF74FBB9B2B78
:1011800006D1A9682046FDF735FEEB689968EAE7C5
:1011900029462046FDF72EFED3E700002DE9F04F4B
:1011A0000023032A85B004460D46174642700162AB
:1011B000C36080F8282003D1408D00285DD1E06213
:1011C000666AB5F82080B5F82490B5F81AA0B5F88D
:1011D00016B000236385C6E90453B360B371F362AC
:1011E000736286F838306B8C777101229844904591
:1011F00038BF90464FEA89010AF0030008F1FF3832
:1012000001F0040101434FEAC80000F07800B26128
:101210000143AA8BEB8B01910BF00F0B4FEA1818CF
:101220004FEA59094FEA9A0A4BEA0807174347EA77
:101230000A0747EA09071F4323D101213046FBF77C
:10124000EFF8019B03707379022B4CD8736AA98A5B
:10125000F363F068DFF8D882FBF791FAB4490246ED
:1012600030460FF006FE4FF000096B8BAA8B13443B
:10127000994570DA298D002269E08000FBF748FE6D
:101280009DE701213046CDE90223FBF7C9F8019B18
:10129000029A63F07F010170039B4FEA8B114FEAC2
:1012A000081000F0300001F04001014303F001009C
:1012B0000143D00000F0080001434FEA8A0000F02B
:1012C000040001434FEA490000F00200014301918C
:1012D0004FEA98084FEA59094FEA5B0B4FEA5A0A5E
:1012E00052085B08A0E7D6E90F9A4FEA49080AF0CE
:1012F000010308F07E084FEA5A0A4FEA991948EAB2
:1013000003085AEA090B4FF00101304618BF48F0B4
:101310008008FBF785F880F80080BBF1000FE4D16E
:1013200094E7EB6A03EBC2035878C0070ED55888E0
:1013300048450BD15968F068FBF721FA414602464F
:1013400030460FF096FD09F101098EE701328A421D
:10135000E7DB0521EFE794F80180EE68B8F1010FB3
:1013600002BF00236B84AB8496B1B20710D13379EE
:101370003F2B0DD1B1682046FDF73CFD606AFBF7BD
:10138000D3F9646A6379012B40F0AA800120E3E07D
:101390002B7843B931462046FDF72CFD606A1021B9
:1013A000FBF708FAEAE7072B0CD1B8F1010F07D1D8
:1013B0000023A370F1685F4B46222046FBF702F83A
:1013C0007169E8E7022B19D13168606AFBF7C8F848
:1013D0006378012B07D10023A370B168564B4C22D0
:1013E0002046FAF7EFFFF1682046FDF703FDEB8A90
:1013F000DB07C3D5606AFBF75DF9CFE7033B032B3F
:1014000043D8B8F1010FD6F80C9006D1206A042217
:101410004146FDF71DFBA5F81A803168606AFBF7AD
:101420009FF82B78032B1ED10122606A0021FFF761
:10143000F5F92B78062B1ED1606AFBF733F90121F1
:101440002046FDF757FB606AFBF72CF9606AFBF753
:1014500029F90023B26849462046FEF736FE2B786C
:10146000062B8BD19AE7042B01D10222DDE7052B55
:10147000DFD10322D9E720460121FDF73BFB606A5B
:101480005F220321FAF7FDFFE3E7B8F1010F04D172
:1014900004220A212846FDF7DBFA17212046FDF732
:1014A00029FB16212046FDF739FBB168606A09095E
:1014B000FDF79AFC1A212046FDF730FB31692046E2
:1014C000FDF798FC0A212846FDF7B2FA0378042BB1
:1014D0003FF464AF4288606A0023FEF7FDFF4DE7EA
:1014E000E26B636A9B1AE3630023236423691A8D0A
:1014F00097420BD36279032A20D1606AE36AA06223
:1015000023631844FBF704FD60633FE7DB6A03EBEA
:10151000C70213F83730052B08D1012120469578F2
:10152000FAF77EFF0570236C013323640137DDE792
:1015300021C40008EFC70008F7C70008042A7FF499
:1015400025AFD4E90A02616A814202D1206B904240
:1015500005D0A1622263002005B0BDE8F08F94F8A9
:1015600038201AB10B490C4803F0AEFE1969E26845
:10157000DB8A50680A88656BDB0003F47E7322F413
:101580007F7243F0020322F003021343C1E90150CA
:101590000B80FBE67F48030830810308194D6C6916
:1015A00007B5014654B90190174810F0C7F817481D
:1015B000019906F05FF8164816F018FC6060AB69F8
:1015C0000BB19C421AD823686B612046C468056938
:1015D00046698769D0F81C80D0F82090D0F824A004
:1015E000D0F828B0D0F82CD090ED0C8B90ED0E9B5D
:1015F00090ED10ABD0F808E0012070470120FBF718
:1016000035F9DCE70C0000208A480308E06B03088A
:10161000B0D503082DE9F04F2DED028B1D462D2A84
:1016200000F1280308EE103A87B0044688461646B3
:101630000DD10021FAF7B6FEC8B1870702D10379B0
:10164000922B14D007B0BDEC028BBDE8F08F922A2C
:1016500020D10021FAF7A6FE014640B1880706D145
:101660000B79952B0AD12046FAF795FE013DA6F19C
:101670001E03012B6FD8A9462F461CE0962BF6D1EE
:101680002046FAF788FE4B6823F0FF0343F09203ED
:101690004B60D7E7962A08BF0135E8E71E2E4ED1EA
:1016A0000121FBF75DF80146C8B95046FBF758F831
:1016B000002808BF5F4607F1FF3BB9F1000F0ED0CD
:1016C00009F1FF3949462046FAF76CFE2269616943
:1016D000D21B824641F82200B9F1000FDED1002171
:1016E000594533D16D1A012DACD0A6F12303022B3D
:1016F00001D92A2E72D1691E2046FAF753FE03A99A
:10170000FAF7C8FD002800F08581232E43D0242E4F
:1017100044D0252E0CBF4FF018094FF02209AF1E00
:10172000002F3EDA002D40F06A81039AD30740F182
:101730006B8142F001012046FBF73FFD82E700216B
:10174000FBF70EF80028CAD10121AEE72046FAF7D0
:1017500022FE0131C4E7202EC7D100212046FAF72E
:1017600021FE00210746FAF7FBFF88B90121384620
:10177000FAF7F6FF0028B8D0FA212046FAF70BFE58
:10178000204607B0BDEC028BBDE8F04FFBF715BD5E
:101790004FF48D71F1E74FF01609C0E74FF01709CC
:1017A000BDE739462046FAF7FDFD04A9FAF772FDB8
:1017B000002800F03B81B9F1220F049A07D11046AE
:1017C000019202F01DFD0028019AC0F22F810399B9
:1017D000484606F0F7FF013F0390A1E7A6F1260374
:1017E000022B47D8691E2046FAF7DCFD03A9FAF759
:1017F00051FD002800F04E81A5F10209B9F1000F5A
:1018000090DD09F1FF312046FAF7CCFD04A9FAF783
:1018100041FDA8B149462046FAF7C4FDC0F30710C0
:1018200043280DD045280BD0049A01922538C7B221
:10183000104602F0E5FC1A2F019A0FD8002811DAA1
:10184000A91C89002046FBF7CFFC46EA0523074682
:10185000C0F80080436000F108010FE11E2F01D99C
:101860000028EDD00399384606F0ACFFA9F1020933
:101870000390C3E7292E19D100212046FAF792FDE3
:1018800003A9FAF707FD0028DAD001212046FAF76C
:1018900089FDC0F30710342818BF4038039914BFDE
:1018A000C0B2022002F09AFD03903BE7052E67D1FB
:1018B00000212046FAF776FD07460028C0D010F038
:1018C000030B04D1436803F0FE03562BB8D001216B
:1018D0002046FAF767FD00F00F03022BB0D1BBF1F1
:1018E000000FADD13B792C2BAAD1BB6803F00F02BE
:1018F000022AA5D11B09482BA2D1FB68002B9FD03F
:101900009A079DD11A79302A9AD1D3F808A04FEAC4
:1019100010195046FAF7E0FC68B95F495F4803F0D8
:10192000A5FCA1693A68096805465B4602F050FBD0
:101930002846FFF733FE5046FAF7F2FC4FEAC9019A
