:020000040800F2
:10000000F8BF002039370308433B0308313B03089E
:10001000453B0308513B03085D3B0308000000001B
:10002000000000000000000000000000693B030821
:100030006B3B0308000000005D3D0308F1940208DB
:1000400001C00008553C0308613C0308693C0308F3
:100050002D0D030801C00008E93B0308EF3B03082E
:10006000F53B0308FB3B0308013C030811F20208BF
:1000700021F2020831F2020841F2020851F20208AC
:1000800061F2020871F2020801C0000800000000DD
:10009000000000000000000000000000073C030812
:1000A0007D3C0308833C0308953C03089B3C030804
:1000B000A13C0308A73C0308AD3C030801C00008AD
:1000C00001C0000801C0000801C0000801C000080C
:1000D00001C00008CD3C0308D33C03080000000029
:1000E0002B3C03085B3C0308793B0308000000003D
:1000F00000000000000000000000000081F2020883
:100100000000000001C00008B53C030801C0000861
:1001100000000000000000000000000000000000DF
:1001200091F20208A1F20208B1F20208C1F202083B
:10013000D1F20208000000000000000000000000F2
:100140000000000000000000000000006D3B0308FC
:10015000E1F20208F1F2020801F30208D93C0308B7
:1001600001C0000801C000080000000000000000FD
:10017000000000000000000000000000000000007F
:100180000000000001C000080000000000000000A6
:0401900001C00008A2
:10C00000FEE7000030B51C4CD4E99D53C01AC109AD
:10C01000C0F3021E6B5C012202FA0EF223EA020355
:10C020006B54D4F8802283094FEA101CB2EB901FA6
:10C03000D4F86C0288BFC4F88032C15C4FEA9C0E11
:10C040000CF0030303255B0005FA03F321EA030365
:10C0500000F80E300CF1010CD4F86C024FEA9C0E83
:10C060000CF0030310F80E105A0041FA02F202F02D
:10C070000302022AE7D030BD0C000020064A034626
:10C08000506A1A684168C1F31E018A4202D3521AEB
:10C090001A6070470068F5E70C0000207F289DBFFC
:10C0A000024B185CC0F34000002070477461030825
:10C0B0007F289DBF024B185CC0F3C0000020704772
:10C0C000746103087F289DBF024B185CC0F3800099
:10C0D00000207047746103087F289DBF024B185CE5
:10C0E000C0F3001000207047746103087F289DBFD3
:10C0F000024B185CC0F340100020704774610308C5
:10C1000008B50246FFF7E8FF00B12032104608BD2F
:10C1100008B50246FFF7EAFF00B1203A104608BD15
:10C12000D0E9023293423DBF5A1C826018784FF02A
:10C13000FF3070470369272B2BD0222B29D0A3F186
:10C14000620113291ED8174ACA40D2071AD542697C
:10C15000272A1ED0222A1CD0722B1CD1662A06D177
:10C160008269272A15D0222A13D0722B15D1436950
:10C17000622B0CD1806927280BD0A0F122035842F2
:10C1800058417047662BF0D14269722AE8D00020EE
:10C19000704701207047662BF6D0622BF7D14369B8
:10C1A000722BE6E71100090002690A2A10B504465D
:10C1B00035D1836A013383620123A269E362636933
:10C1C0006261226F2361002A31D0616E8A423FBFD3
:10C1D000501CA16E20678A5C28BF0022A2613BB977
:10C1E000E2692261226A6261626AA2616366236710
:10C1F00063690D2B08D1A3690A229342626103D1BE
:10C20000D4E901039847A061A369013306D16369AA
:10C210005A1C03D00A2B1CBF0A23A36110BDC36A9A
:10C22000092A04BF073323F007030133C5E7D4E924
:10C2300001039847A061DBE738B504460D46226943
:10C24000531C01D1002038BD0A2A06D10DB1636B01
:10C25000E3B12046FFF7A8FFF1E71046FFF71EFF06
:10C260000028F6D1232A08D12046FFF79DFF236935
:10C270005A1CE4D00A2BF7D1E1E75C2AE3D16369C9
:10C280000A2BE0D12046FFF78FFFE2E72846DAE7E6
:10C2900010F0010204D040F0010008600120704756
:10C2A000A8B110F003030FD102793A2A0ED18368A6
:10C2B0000B6013F00100F1D19A0708D11868044B04
:10C2C000C31A584258417047104670471846704785
:10C2D0004C88030810F001021CD110F003030CD0AD
:10C2E00000F00F03062B15D00A2B11D100090E38D0
:10C2F00003288CBF00200120704770B102793A2AD0
:10C3000008D02D2A08D18068B0FA80F04009704723
:10C31000104670470120704718467047C20702D583
:10C3200040F001007047830710D0030900F00F00B0
:10C33000062803D1D80040F002007047A3F10F0097
:10C34000022809D8064B53F82000704730B1037912
:10C350003A2B03D180687047024870470248704703
:10C36000345F0308306F0308386F03080346006822
:10C3700030B508B9106030BD840702D013600120C9
:10C38000F9E74468E5B28D42F8D108301060200A20
:10C39000F1E7D0E90432013B036152F82300704712
:10C3A0000369C9431944436953F82100704731B107
:10C3B000826801F00303134304BF0B688360704776
:10C3C000F7B51E4659B111F0030511D14F68FCB203
:10C3D00094420DD13F0A01F10804BD4201DB03B0D4
:10C3E000F0BD54F8041B01900135B0470198F4E703
:10C3F000334603B0BDE8F04018470000024B89689F
:10C400009D22FFF7DDBF00BFF9EF0008024B8968EE
:10C410006B22FFF7D5BF00BFD90201084379426AFA
:10C42000032B88BF436B114494BF03469B184162A2
:10C4300018467047837913B103461846704742790E
:10C44000C36A032A194401D8C162F5E7826AC1624E
:10C450001A44436B1344F0E710B50C460121FFF773
:10C46000E9FF047010BD4379012B07D0836819449C
:10C47000036981605A8C9142C8BF5984704710B5D6
:10C480001446FFF7F0FF0121FFF7D4FF047010BD41
:10C49000038B013B03835D22406A4FF0FF31FFF7BE
:10C4A000EEBFF8B516461F46FFF7DDFF8479054657
:10C4B00004BB4379022B25D9C46A036AC4F1FF2463
:10C4C00053F8273004F57F04FE34442E1C4412D860
:10C4D00014F1400F14DB3F2CD4BF00270127E41BCD
:10C4E000B91C2846FFF7A6FF06706FB9442E98BF07
:10C4F00040344470F8BD7F2C94BF00270127EEE73D
:10C500000127ECE70127EBE76B79442E98BF04F590
:10C510008044042B05D1B4F5004F24BF012385F8D6
:10C52000383064F07F03E41143708470E2E7002A3E
:10C5300010B502F1470204460B46D2B20CBF0221ED
:10C540000021406AFFF7ADFF238B226A0133918CF3
:10C550009BB29942238338BF938410BD264BD3F8F6
:10C56000D431022B2DE9F047044689460ED886695E
:10C57000B1420BD9C56A43698E1BED1A40F2FF77B1
:10C5800056EA050304D1E36AC4E90539BDE8F0873A
:10C59000062E01D90F2D1AD91F2DAA4628BF4FF0FC
:10C5A0001F0A554510D8032EB04628BF4FF0030888
:10C5B00001212046FFF732FF4AEA48130370A5EB3A
:10C5C0000A05A6EB0806DBE74FF00008F0E7BE42DD
:10C5D000B0464FF0020128BFB8462046FFF71EFFC5
:10C5E0004FEA181303F070032B4363F07F030370CB
:10C5F00080F80180AA46E2E70C00002038B50D461D
:10C6000000218171FFF72FFF4379012B1EBF036AC1
:10C61000C26A43F8252038BD01F110033F2B73B5E2
:10C6200006460C4608D8A1F18002D2B2012102B020
:10C63000BDE87040FFF723BF012122220DF105055F
:10C64000FFF71DFF294604F07F00E3B2E4112A46FC
:10C6500005F8010D601C0128F5D8013403F04003F2
:10C6600013D11BB97F2305F8013C951E491B3046A9
:10C67000FFF7E0FE01AC01462B46A34209D19DF82D
:10C6800004205B1BC25402B070BD002BEED000230F
:10C69000E9E713F8012B62F07F0201F8012BECE7C8
:10C6A00053220121FFF7EBBE57220121FFF7E7BE1E
:10C6B00059224FF0FF31FFF7E2BE5A220021FFF767
:10C6C000DEBE5B220021FFF7DABE10B50B46044642
:10C6D00042220021FFF7E5FE0123A37110BD32299C
:10C6E00013B513D0332914D1012407212939CAB233
:10C6F0004FF0FF310190FFF7C2FE01985CB1D322E9
:10C70000002102B0BDE81040FFF7B9BE01240621A8
:10C71000ECE70024EAE702B010BD62226FF00101ED
:10C72000FFF7ADBE10B5632204464FF0FF31FFF7AF
:10C73000A6FE0123A37110BD10B501F167020446E6
:10C74000D2B24942FFF79BFE2269D38A43F001032C
:10C75000D38210BD084611461BF016B938B5054600
:10C760000C46FFF7B7FD38B12846FFF7D7FD07F0B5
:10C770005FFA031B5842584138BDC90010B5012269
:10C78000044641F00201083007F0FAFE43683BB965
:10C79000A368C3F3DC03013B5B0043F00103436088
:10C7A0004068C0F34F0010BD8968406A25F0ECBABC
:10C7B0000E2902D1034925F0E7BA4131CAB201215D
:10C7C000FFF75DBE306F030810B504465E22406A75
:10C7D0000021FFF754FE606A1021FFF7E9FF606A4D
:10C7E0000121BDE81040FFF7A7BF4923482225F0EB
:10C7F0007DBA4F234E2225F079BA00000F49D1F8B7
:10C80000883043F47003C1F888300D4B1A6800205B
:10C8100042F001021A6098601A6822F0847222F4D1
:10C8200080321A60074A5A601A6822F480221A601D
:10C83000D8604FF000638B60704700BF00ED00E0F0
:10C840000038024010300024024B5A6902605861DF
:10C85000002070470C000020024B5A6912685A6190
:10C86000704700BF0C000020044A93691968916169
:10C8700010B15A6818461047704700BF0C000020DE
:10C88000C460056146618761C0F81C80C0F82090D3
:10C89000C0F824A0C0F828B0C0F82CD080ED0C8BD4
:10C8A00080ED0E9B80ED10ABC0F808E0FFF7CCBF29
:10C8B000024A138901331381704700BF0C00002026
:10C8C000024A1389013B1381704700BF0C0000200E
:10C8D0002DE9F0432A4C00254FF0030CD4F86C628C
:10C8E0000021013143189A0803F00303B25C5B0096
:10C8F00042FA03F303F00303022BF2D0D4F87832A8
:10C90000090103EB00108E0889B300EB860603686B
:10C910001A0729D1D4F878125A1AC2F3011E994283
:10C920004FEA92174FEA4E0E4FEA12121CD8D4F873
:10C930007C12994218D9D4F86C9219F8078048FAF9
:10C940000EF303F003030CFA0EF1012B41EA080188
:10C950000AD104EB450E3F2D09F807109ABF0135A7
:10C96000AEF88C22C4F888320430B042CFD12DB159
:10C97000013D04EB4503B3F88C02AFE7BDE8F0835B
:10C980000C00002070B5184ED6F88832DBB1D6F80E
:10C99000703200259800C6F88852A0B10024D6F85D
:10C9A0006C12A20804F003038A5C5B0042FA03F3F2
:10C9B00003F00303032B07D00134A042EFD8D6F8CD
:10C9C0008832002BE7D170BD2046FFF781FFD6F8F3
:10C9D00070320134B4EB830F4FEA8300DFD3D6F813
:10C9E0008832002BD7D1EEE70C0000202DE9F04F64
:10C9F000644FD7F87032D7F88422B2EB830F34BF7C
:10CA000002F101084FEA830897B0B8F1000F00F077
:10CA1000A0800025AB46AC46032304E0012A29D0C0
:10CA20000135A8451CD0D7F86C02AE0805F0030408
:10CA3000815D640041FA04F202F00302022A00EB75
:10CA4000950E12D0032AE9D1022202FA04F4AB4671
:10CA5000013521EA0401A84581554FF0000CE2D1CF
:10CA6000C7F884B217B0BDE8F08FBCF1000F5FD1FA
:10CA7000AB46D5E7D7F874224FEAD50A05F0070987
:10CA800012F80AC04CFA09F0C00702EBD5024FD5E4
:10CA9000D7F878022901415800EB051000293BD056
:10CAA00002AA40F2B91107F0BDFE029A032372B345
:10CAB000EFF3108172B6B7F8DC21130443BFB7F867
:10CAC000DC2102F1FF3212B24FF6FF72A7F8DC212F
:10CAD00081F31088029A0399019204A80091FFF74C
:10CAE000CFFE00283BD1DDE90012104608F0F4F833
:10CAF000FFF7B2FE0323EFF3108172B6B7F8DC2123
:10CB0000013212B2A7F8DC21DAB181F31088D7F82C
:10CB1000742212F80AC05244012101FA09F92CEAE0
:10CB2000090C82F800C0D7F86C22915D02EB060E6A
:10CB300003FA04F421EA04018EF800104FF0010C0E
:10CB40006EE7FA698AB10022A7F8DC2181F3108828
:10CB5000DDE7C346C7F884B217B0BDE8F08F05998A
:10CB600009480AF0DBFD0323C5E7D7F8E021002AD6
:10CB7000E9D197F8E821002AE5D14FF00102A7F8A2
:10CB8000DC21C2E70C0000206471030881B3F8B512
:10CB9000041F184E04EB8105032754F8043F1A07BD
:10CBA0001AD1D6F87822981AC0F301119A424FEAA6
:10CBB000901C4FEA41014FEA10100DD8D6F87C22A4
:10CBC0009A4209D9D6F86C2212F80CE04EFA01F319
:10CBD00003F00303012B02D0A542DED1F8BD07FA12
:10CBE00001F141EA0E0102F80C10FFF771FEF3E7C4
:10CBF000704700BF0C00002070B51C4ED6F888327C
:10CC0000DBB1D6F8703200259800C6F88852A0B182
:10CC10000024D6F86C12A20804F003038A5C5B00BF
:10CC200042FA03F303F00303032B0FD001348442D1
:10CC3000EFD3D6F88832002BE7D1FFF7D7FE338940
:10CC40000022013BC6F88022338170BD2046FFF7E9
:10CC50003FFED6F870320134B4EB830F4FEA830005
:10CC6000D7D3D6F88832002BCFD1E6E70C000020CE
:10CC7000394BD3E99E122DE9F047521A0024D3E92B
:10CC80009B61C0E90144C0E90344C0E90544026076
:10CC90004FEA810CA646274625462246A146214654
:10CCA000A04616F8093049000B4103F00303012B9D
:10CCB00047D0022B41D0002B38D0013294450ED002
:10CCC0004FEA920902F0030116F809304FEA410ACF
:10CCD00043FA0AF313F0030301D0012BE1D1012D34
:10CCE00011D0022D02BF4169013141618169A94220
:10CCF00038BF856194450FD0012B26D04FEA9209A9
:10CD000002F00301CDE70169013101618169A942A6
:10CD100038BF85619445EFD1474500D9C7602401EC
:10CD20004FEA0E13C0E90143BDE8F0870EF1010E92
:10CD3000C0F808E001371D46BFE701344460013503
:10CD4000BBE7013444601D46B7E7B84501D2C76070
:10CD5000B8460027D2E700BF0C0000200F302DE9B5
:10CD6000F84306095AD0684C2389002B56D1B4F8F1
:10CD70000C33002B0D460CBF4FF0010E4FF0000E90
:10CD800050D1D4F88002D4F87072874239D9D4F8DF
:10CD90006CC2411E614400221AE00132964251D910
:10CDA00013F00C0F1ED10132964240F2A48013F012
:10CDB000300F1CD10132964240F2A08013F0C00F18
:10CDC0001AD10132964240F29C800130B84218D20A
:10CDD00011F8013F13F0030FDFD013F00C0F4FF0E9
:10CDE0000002E0D013F0300F4FF00002E2D013F059
:10CDF000C00F4FF00002E4D00130B8424FF0000203
:10CE0000E6D3BEF1000F09D123F0EEF9D4F8800289
:10CE1000D4F8707287424FF0010EB8D8002318463C
:10CE2000BDE8F883D4E9C4239A42AAD323F0DCF9FD
:10CE3000D4F88002D4F87072B84238BF4FF0010EB7
:10CE4000A5D3EBE78000012A02BF431C9B08C4F86E
:10CE50008032D4F88432811A4F1C834238BF034693
:10CE60004FEA970EC4F8843207F003031CF80E90C3
:10CE70004FEA43080123023103FA08F343EA0903A6
:10CE800088420CF80E3013D34FF002084FEA910C91
:10CE9000D4F86CE201F003031EF80C905B0008FA72
:10CEA00003F3013143EA090388420EF80C30EDD256
:10CEB000D4F81033D4F878823344C4F8103308EB34
:10CEC000071318461201002126F0B4FC3E01034668
:10CED000002DA4D00022D4F8740248F80620F908E6
:10CEE0000122445C07F0070702FA07F7274347547B
:10CEF0001846BDE8F88380000130A4E780000230C6
:10CF0000A1E7800003309EE70C00002010B500214F
:10CF10000446FFF723FF18B914B1204608F020FAA1
:10CF200010BD00002DE9F041064630200D46904628
:10CF30001F46FFF7EBFF072D04460570C0F80C8075
:10CF400001D0012D1ED1D8F80820C2F30F12A28201
:10CF50000C20FFF7DBFF0378012262F3020303706A
:10CF600004232061E38427832020FFF7CFFF336A67
:10CF700063600023A360F369E06233B9F461204683
:10CF8000BDE8F081044B5A5DE1E71A469B68002B2F
:10CF9000FBD19460F3E700BF00A103080021FFF775
:10CFA000DDBE0000034B1A8912B908B1FFF72AB899
:10CFB000704700BF0C000020036810B5044613B191
:10CFC0004068FFF7EFFF2046BDE81040FFF7EABFDB
:10CFD0002DE9F84F88460646002800F0AC8000296D
:10CFE00072D0594D2C89002C72D1D5F87812D5F811
:10CFF0007072411A0B09581C08F10F0EB0EB870F25
:10D000004FEA1E1E4FEA870AA44680F09A80D5F8A0
:10D010006C920127840800F0030B19F804404FEAD2
:10D020004B0B44FA0BF404F00304022C54D02CB93B
:10D030000CF1010C0CEB0704A6454ED8BE453FD0C1
:10D040001ED3BC44E6454CD9002A41D0D5F8742201
:10D05000C90903F00703515C1941404601F0010181
:10D06000FFF77CFE044698B33A01314626F09EFB5A
:10D070002B8933BB3046FEF7C5FF2046BDE8F88F4D
:10D080009E4470463B444FF003084FEA900CD5F89D
:10D090006C1200F0030211F80C40520008FA02F280
:10D0A000013024EA0202984201F80C20EDD1D5F8B3
:10D0B00080324FEA9E02B3EB9E0F88BFC5F88022F4
:10D0C00034462046BDE8F88F1F4B1C89002CD2D077
:10D0D00000242046BDE8F88F01370130824599D100
:10D0E000ACE703EB0E013B44994211D94FF0020823
:10D0F0009808D5F86C4203F0030214F800C05200FF
:10D1000008FA02F2013342EA0C0299422254EFD1AA
:10D11000D5F88432AEEB07028B4238BF0B461201C2
:10D1200006EB071034460021C5F8843226F082FB56
:10D130002046BDE8F88F01464046BDE8F84FFFF7AE
:10D140000DBE01277AE700BF0C00002010B50122B8
:10D150000C46FFF73DFF18B914B1204608F000F95E
:10D1600010BDF8B504461D46D0E9000383420F46C2
:10D17000164608D31030C100A068FFF7E7FF236808
:10D18000A06010332360D4E90103421C626053F8AD
:10D19000301067F3170143F8301003EBC002D6706C
:10D1A0005560F8BD10B48469CAB20023616C5DF8A3
:10D1B000044BFFF7D6BF38B5D0E903329A42044694
:10D1C0000D4608D3103399004069FFF7BFFFE368AD
:10D1D00060611033E360D4E90432591C216142F8E4
:10D1E000235038BDF8B5446A06460D46BCB1D4E9B3
:10D1F00000132B448B4223D905F108030022194464
:10D200002046FFF7E5FE0246B8B9616820460831BE
:10D21000FFF7DEFE63682360336A63603462802D4B
:10D220002F4638BF802707F10800FFF76FFE002365
:10D23000076043600446706202E023682B44236069
:10D2400060680544656008342044F8BD38B50D4673
:10D250000C211446FFF7C6FF4FF49D72C0E901246C
:10D26000056038BD2DE9F04105460F4614461646C7
:10D2700096B9314620460FF011FB014600F108082F
:10D28000ACB90A4628463946FFF7E0FF0146284672
:10D29000FFF791FF012008E0013E31462846FFF7E5
:10D2A0007FF8FFF717F80028E2D1BDE8F0812846A3
:10D2B000FFF76FF80646FFF731F8013C48F8240005
:10D2C000002EDDD0B307DBD1686A00F108039E426F
:10D2D000D6D3426813449E42D2D273681B0A0233EB
:10D2E000A2EB83034360CBE7014441F2055388423C
:10D2F00004D398B2012838BF0120704710F8012BE1
:10D3000003EB43135340F2E72DE9F04781460F4604
:10D31000FFF7EAFF204B5C6A82460CB9204637E0F3
:10D3200094F90730E668002B06F1FF364FF0000550
:10D3300016DB013604F11808AE4215D82468ECE774
:10D3400006EB05084FEA580808F106033A4654F878
:10D350002310484626F0CEFA0028CCBF4546464664
:10D36000731B012BECD8E4E7236933F815305345E0
:10D3700010D163695B5DBB420CD158F825003A4679
:10D38000494626F07FFA28B96068C0F31E00284499
:10D39000BDE8F0870135CFE70C0000202DE9F0470C
:10D3A00080460E46FFF7B0FF0246002840F092800C
:10D3B000FF2E03D949494A4807F0C6FF494CD4F823
:10D3C000C801751C90B1D4E973132B448B4229D941
:10D3D0002944FFF7FDFD0746D8B90246D4F8D0111D
:10D3E000D4F8C801FFF7F4FDC4F8C871802D2F46AA
:10D3F00038BF80273846FFF7D1FDC4F8C801D0BB3D
:10D400002846FFF7CBFDC4F8C80198BB284607F0B3
:10D41000A7FFD4F8CC312B44C4F8CC31D4F8C831B0
:10D42000002BE3D0D4F8D031D4F8C87131461F4472
:10D4300040462B44C4F8D031FFF756FF414605461D
:10D44000324638464FF0000826F0B0F907F806805B
:10D45000636AD3E902A353452AD30E2000FB0AF0E6
:10D4600018304FEA4A09FFF799FD50B9C4F8C801CE
:10D470004846CCE72F460023C4F8CC71C4F8D0311D
:10D48000D0E700F1180303EBCA03626A036103EB00
:10D490008A03436153680260D268C0F80C80C3F30A
:10D4A0001E031344426863F31E02C0E9012960624F
:10D4B000636AD3E903025B6922F810501E54821D8F
:10D4C000636A43F82270DA680132DA605A68C2F39C
:10D4D0001E0202441046BDE8F08700BFB0440308B6
:10D4E000F08603080C00002007B5019001A8FEF7A4
:10D4F000C5FD019A036933F8120003B05DF804FB1F
:10D5000007B5019001A8FEF7B9FD019B4269D05C07
:10D5100003B05DF804FB07B5019001A8FEF7AEFD6E
:10D52000019B063350F8230003B05DF804FB13B5EC
:10D53000019001A80C46FEF7A1FD019B4269D25C57
:10D540002260063350F8230002B010BD2DE9F047E9
:10D550002C4DDFF8B480D5F86CC20024D5E99E6E5E
:10D5600004600C6014601C606C6A0CB1444505D109
:10D570001968126811441960BDE8F0870568D4F88D
:10D580001490013505600D68E7683D440D60E5685D
:10D5900009EB050AD1452CD314F00F0730D1B44262
:10D5A00022D3744520D2A51B4FEA95194FEA151ACC
:10D5B0001CF80990C5F301156D0049FA05F505F051
:10D5C0000305012D10D101370AEB07054FEA950934
:10D5D00005F003051CF809906D0049FA05F505F002
:10D5E0000305022DEFD03F011D6824683D441D60F6
:10D5F000BBE715686F1C19F8015B2F441760C9E77A
:10D600000027F1E70C000020447A030830B500231E
:10D61000202411F8012F0AB9027030BD120600F162
:10D6200001051FD50BB1047028460B78124A03F090
:10D630007F036BB9013A12F8013F13F0800F0546E2
:10D6400000F101000BD003F07F032B700123E0E712
:10D6500012F9015B002DFBDA013BDBB2E9E700F8D0
:10D66000013CE8E7012B04BF047028460B7800F862
:10D67000013B0223CDE700BFB544030838B50129BB
:10D68000044638BF01210025084621606560FFF788
:10D690003DFC2573A06038BD38B505460C46013108
:10D6A000FFF7ECFF6C6038BD037B10B5044613B97F
:10D6B0008068FFF777FC0023A36010BD10B5044617
:10D6C00090B1C3684068984704F15000FFF7ECFF41
:10D6D00004F16000FFF7E8FF206CFFF763FC2046D1
:10D6E000BDE81040FFF75EBC10BD000038B5037BFD
:10D6F00004460D461BB10748002107F025FE0168CE
:10D7000080682944FFF722FD2368A0601D4425603E
:10D71000184438BDF086030838B5446803682144CE
:10D720009942054610D9037B1BB10848002107F038
:10D730000BFE01F1100424F0070408348068214630
:10D74000FFF704FD2C60A86038BD00BFF086030819
:10D7500070B504460E4611461546FFF7DDFFD4E9C5
:10D7600001302A463146184426F050F862682A44AF
:10D77000626070BD38B504460D46FFF7CDFFD4E9B1
:10D7800001301D446560184438BDD0E900239A4239
:10D7900010B5044602D10121FFF7A8FFD4E90132F8
:10D7A0000021D154A06810BD10B50C460121FFF72F
:10D7B000E1FF047010BD7F29F8B50C46CEB204D845
:10D7C0000121FFF7D7FF0670F8BD06F03F06B1F55F
:10D7D000006FC1F3871546F0800607D20221FFF7DC
:10D7E000C9FF65F03F0505704670EDE705F03F05A0
:10D7F000B1F5803FC1F3073745F0800508D203211A
:10D80000FFF7B8FF67F01F07077045708670DBE70A
:10D810000421FFF7AFFFA40C07F03F0764F00F04EB
:10D8200067F07F07047047708570C670CCE713B54A
:10D8300004460846019126F037F801990246204631
:10D8400002B0BDE81040FFF783BF43688B422CBF96
:10D85000591A0021416070472DE9F04F426E85B0A2
:10D860008046FAB1026FEAB929216030FFF79CFFC8
:10D87000D8F81020C8F81C20D8F81420C8F82020A8
:10D88000D8F81820C8F82420D8F868201178C8F8EB
:10D8900010105178C8F814109278C8F81820032294
:10D8A000C8F870200022C8F8542001214046FEF735
:10D8B000C3FCD8F83050D8F82820C8F84420002DF0
:10D8C000D8F82C20C8F8482008DA082288F84C201C
:10D8D0000135C8F8305005B0BDE8F08F04D00722FC
:10D8E00088F84C20013DF4E7002843D02946404603
:10D8F000FEF7A2FC062288F84C20D8E90F206FF032
:10D9000000415518D8F82C4030F81550013CAC4275
:10D91000E1D023D9D8F838108A420AD30831490017
:10D92000FFF714FCD8F83820C8F840000832C8F8CF
:10D930003820D8E90F21501CC8F83C0021F81240CB
:10D94000D8F830200132C8F83020C4E7013AC8F8CE
:10D950003C20D8F83020013AC8F83020D8F83C20D4
:10D96000551830F81550AC42F0D3B4D0022288F8E4
:10D970004C20B0E7D8F81060741C02D188F84C0035
:10D98000A9E74046FEF7D6FB0190002800F0F2819F
:10D9900088F84C50D8F81020752A1FD0622A08D178
:10D9A000D8F81420722A4FF0000419D1019F0226E2
:10D9B00018E0722A07D1D8F81420622A47D0662AC4
:10D9C00047D10522D3E7662A46D1D8F81420722A17
:10D9D000F7D0019C002701260C2204E00024F9E77F
:10D9E000274601260D2298F84C10C9BB88F84C2018
:10D9F0003EB14046FEF7D8FB022E02D14046FEF76C
:10DA0000D3FBD8F810204046222A14BF4FF0270A33
:10DA10004FF0220AFEF7C8FBD8F81020524522D159
:10DA2000D8F8142092451ED14046FEF7BDFB404673
:10DA3000FEF7BAFB4FF0030924B1B94908F16000C1
:10DA4000FFF7F5FE4FF0000B08F1500632E000241E
:10DA5000ACE7019F0024BEE700242E462746BBE723
:10DA60009142C5D037E74FF00109E5E7924518D05C
:10DA700008F1600BD8F810100CB17B2937D05C2965
:10DA800040F06D8140460291FEF78EFBD8F810B051
:10DA90000299002F00F08A803046FFF78CFE59462D
:10DAA00031E1514630460BF1010BFFF784FE404651
:10DAB000FEF77AFBD8F81020511C00F05581B9F11F
:10DAC000010F02D10A2A00F04F81CB45CED359462F
:10DAD00008F15000FFF7B9FE01214046FEF7ACFB0C
:10DAE0004046FEF727FB00287FF454AFF3E640469C
:10DAF000FEF75AFBD8F810107B290AD13046FFF701
:10DB000053FE4046FEF750FB7B213046FFF74CFEAC
:10DB1000B0E728215846FFF747FED8F864300022C6
:10DB2000D8F81010481C11D052BB3A290ED07D29CC
:10DB30000CD0212924D1D8F814007238012824D817
:10DB4000D8F818003A2801D07D281ED1D8E919212B
:10DB5000881810F8010C3D2809D1D21A1944304612
:10DB6000FFF7F6FDD8F86420013AC8F8642058465B
:10DB70002921FFF719FE2C215846FFF715FEC3E7B0
:10DB800021F020005B280CD10132C9B25846CDE902
:10DB90000232FFF709FE4046FEF706FBDDE90232DE
:10DBA000BEE75D2808BF02F1FF32EEE7BBF1780F58
:10DBB00009D8BBF15B0F0ED8BBF1220F78D056D835
:10DBC000BBF10A0F50D0ABF13001072900F2C18040
:10DBD0004FF0030BB4E0ABF15C021C2AF3D801A3B5
:10DBE00053F822F0B1DC0008C7DB0008C7DB0008EF
:10DBF000C7DB0008C7DB000859DC00088DDC000823
:10DC0000C7DB0008C7DB0008C7DB00089DDC000895
:10DC1000C7DB0008C7DB0008C7DB0008C7DB00085C
:10DC2000C7DB0008C7DB0008C7DB000895DC00087D
:10DC3000C7DB0008C7DB0008C7DB000889DC000879
:10DC4000C7DB000891DC0008A1DC000899DC0008B3
:10DC5000C7DB000819DD0008072198F84C200C2AC2
:10DC600079D13046FFF7A7FD4FF0000B1FE7BBF15E
:10DC7000550F15D0A7D8BBF1270F19D0BBF14E0F08
:10DC8000A1D1284807F00CFD0D21E6E70821E4E7C3
:10DC90000921E2E70A21E0E70B21DEE70C21DCE7BE
:10DCA00098F84C200D2A05D15C213046FFF783FD02
:10DCB0005946D2E7BBF1750F0CBF4FF0040B4FF084
:10DCC000080B00211CE040460291FEF76DFAD8F8DF
:10DCD00010207F2A05D8144B0299985C10F0400F51
:10DCE00004D1012288F84C200021B6E7303A092AF5
:10DCF00088BF22F020024FEA011188BF073A114481
:10DD0000BBF1010BDFD2481CAED0B1F5881FA4D304
:10DD1000012288F84C20A7E74FF0020BD1E700BFA3
:10DD2000F94703080248030874610308404602915A
:10DD3000FEF73AFAD8F810200299303A02EBC10106
:10DD4000D8F81420303A072ADDD8BBF1010BEDD109
:10DD5000D9E75C21A0E6FF29DAD80D2AD8D1C9B2CB
:10DD60003046FFF721FD7FE7CB453CBF032288F813
:10DD70004C20ACE63046FEF79BF9054618B95F2EFD
:10DD800001D07F2E3FD9092288F84C2008F1500499
:10DD9000F1B22046FFF708FD4046FEF705FAD8F835
:10DDA00010104A1C0BD00846FEF782F918BB5F29F9
:10DDB00021D07F291FD80846FEF784F9D8B920461C
:10DDC000FFF7E3FC774E0546002456F8041B28466F
:10DDD00025F078FD002810D10F34E4B2122C88F819
:10DDE0004C407FF478AD704AD2F8D421002A0CBFA1
:10DDF00011220F22BBE5C9B2CBE7FFF66CAD0134AF
:10DE0000242CE2D167E53046FEF75CF948B92E2EA6
:10DE100073D1D8F81400FEF755F9044618B9634DCC
:10DE200061E02E2E2CD10B2288F84C2008F15004F2
:10DE300031462046FFF7BFFC4046FEF7B5F90B26FA
:10DE4000D8F810104B1C3FF446AD75BB21F02002F2
:10DE5000452A2AD16521204688F84C60FFF7ABFCA3
:10DE60004046FEF7A1F9D8F810102B2901D02D2932
:10DE7000E6D12046FFF79FFC4046FEF795F9DFE725
:10DE80000A22302E88F84C20D0D1D8F8142042F045
:10DE90002002623A162A9FBF4548D040C04300F096
:10DEA000010080F00100C5B2C0E70846FEF700F9A6
:10DEB00040B90846FEF706F920B92E2909D188F89D
:10DEC0004C60D6E72E29FAD021F020024A2AD0D180
:10DED000F5E75F29D0D0FEE4652F01D0632F00D194
:10DEE0000135013401352F780FB1BE42F4D14046DF
:10DEF000FEF75AF91FB9012239E500248FE7212FD7
:10DF000008D1D8F810203D2AF5D14046FEF74CF94B
:10DF10003A222CE52E2F11D1D8F810202E2A03D129
:10DF2000D8F814202E2A01D05D2220E54046FEF7C5
:10DF30003BF94046FEF738F90E2218E50335224634
:10DF400015F8026C632E11D0652E0FD019498A5C2A
:10DF500088F84C2002F0FD01552901D0592A17D12B
:10DF6000D8F834200132C8F83420B4E415F8011C84
:10DF7000D8F81000884204F1010407D14046FEF7AA
:10DF800013F92246652EE1D00235D9E7632EFAE770
:10DF9000562A02D058297FF49EACD8F83420013A92
:10DFA000E1E700BF94A203080C000020B447030877
:10DFB0000120400068A2030838B50446154662688F
:10DFC0008A42084603D929448A4201D8606038BD94
:10DFD000A368521A1844194425F018FC6268521BB1
:10DFE0006260F4E737B505460846019125F05CFC10
:10DFF000044620B102466B6801992868984720467C
:10E0000003B030BD2DE9F74F89469DF83010174613
:10E010000D9A11F0DF0F0646A2EB07023DD0302922
:10E0200025490CA813BF804688464FF0100A4FF0D0
:10E03000010A13F0800535D002EBD2746510A2EB13
:10E040006404002D35DDAB46DA455246736830680E
:10E05000A8BF5A46414601929847019AABEB020B82
:10E06000BBF1000FF0DC2FB1736830683A464946C7
:10E0700098473D44002C0CDD2544A2455746A8BFD7
:10E080002746736830683A464146E41B9847002C9F
:10E09000F3DC284603B0BDE8F08FDFF820804FF0B6
:10E0A000100AC6E713F0010401D11546C9E714466A
:10E0B000D9E70025D7E700BF598903084889030835
:10E0C0002DE9F04389B006460020119D9DF8488057
:10E0D000139F8DF80F000AB381421ADA2D228DF8B2
:10E0E0000F204942109A08ACA2F10A000DF1100964
:10E0F000B1FBF3FC03FB1C12092A8CBF121830324F
:10E1000004F8012D4C458E4661460ED07345EFD97B
:10E110000BE0A80727D52B228DF80F200029E1D18D
:10E1200030238DF81F300DF11F0415F040099DF8C4
:10E130000F301CD023B30122CDE900822B460DF114
:10E140000F013046FFF75EFF013F814608AACDE987
:10E1500000872B46121B21463046FFF753FF4844E9
:10E1600009B0BDE8F0836A07D8D52022D4E7002B98
:10E17000ECD004AA9442E9D904F8013C013CE5E75B
:10E180009946E3E790F9001003780029024601DB85
:10E190001846704703F07F004023184206D112F85A
:10E1A000013F03F0C001802904D0704720EA03003A
:10E1B0005B08F2E703F03F0343EA8010EFE7014416
:10E1C0000346002099421A4600D87047127802F0A0
:10E1D000C002802A03F1010318BF0130F2E710B535
:10E1E00001440246E5240020914203D8B0FA80F0B1
:10E1F000400917E012F8013B30B103F0C003802B57
:10E2000011D10138C0B2EFE7BF2B09D9F72B09D8DC
:10E21000D80800F0060044FA00F000F00300E3E73D
:10E220001B06E1D510BD0020FCE7023981420B46F8
:10E2300003D31A880239002AF8D00233181A401082
:10E240007047994210B511D313D800EB410002EB8F
:10E25000410209B9084610BD30F8023D32F8024DBE
:10E260001B1B002B02DB04D10139F2E74FF0FF301A
:10E27000F1E70120EFE7B2EB131F70B505464FEA57
:10E28000131614D9901B03F00F0401EB460102464C
:10E290000E46012A31F8023B18BF3368E3409BB2B7
:10E2A000013A25F8023BF3D103B9013870BD0020D3
:10E2B000FCE7F0B5059F0024D21B2646A74210D1EB
:10E2C00000EB470C01EB47010024A24214D10CEBF8
:10E2D00042031EB101212CF812100233181A40100B
:10E2E000F0BD31F8145033F814C06544354420F8BB
:10E2F00014502E0C0134E1E731F8145035442CF859
:10E3000014502E0C0134E0E7F0B4049F0025D21B1A
:10E310002C46AF420BD100EB470601EB470500232B
:10E320009A420FD106EB4201F0BCFFF77EBF31F8F5
:10E330001560344433F81560A41B20F815402414EC
:10E340000135E6E735F813100C4426F81340241481
:10E350000133E5E72DE9F043079CDDF828E0DDE92E
:10E3600008760239154684464FF6FF78A4EB020979
:10E3700055B900EB42011FB1012320F812300231E0
:10E38000BDE8F043FFF751BF31F8024F013D44446F
:10E39000264405EB0904AC4296BF33F8024B4FF616
:10E3A000FF744444744486EA040E17FA8EF72CF87E
:10E3B000027B4FEA144E360C3F0CD9E728B10378A4
:10E3C0009B0702D48068FEF7EDBD704710B5044688
:10E3D00038B18068FEF7E6FD2046BDE81040FEF744
:10E3E000E1BD10BD38B502290446806838BF02215E
:10E3F0000D4618B12368B1EB930F07D96900FEF7FA
:10E40000A5FE2368A06065F39F03236038BD38B57F
:10E4100004460C20FEF77AFD23682278054602F0B8
:10E420000102C3F39D0023F0030313432B606368D1
:10E430006B604000FEF76AFDA8602268A168C2F325
:10E440009D02520025F0B2F9284638BD38B5054680
:10E450000C464968FFF7C6FF22782B78A86862F35C
:10E4600000032B7063686B606268A1685200BDE8AE
:10E47000384025F09BB973B50C4616460546D2E9DF
:10E480000132D1E90110FFF7DCFE0028BEBF2346B0
:10E4900034461E462378327861685340DB071BD42C
:10E4A00001312846FFF79EFF73680093D4E90121EC
:10E4B000B368A868FFF7FDFE686023786A68C3F355
:10E4C0000003002A0CBF002303F001032A7863F342
:10E4D00000022A7002B070BD2846FFF783FF736800
:10E4E0000093D4E90121B368A868FFF70DFFE3E7C3
:10E4F0002DE9F04F4B6885B004460E4615460BB12A
:10E50000536843B923786FF30003237000236360DB
:10E5100005B0BDE8F08F81422ED1FFF778FFA5420C
:10E520000646074600D105466B68716820461944C7
:10E53000FFF758FF2268A068C2F39D025200002135
:10E5400025F078F9B368D4F808E0D6F80490019380
:10E55000AB68029300226B6803930EEB4908F44604
:10E560001146039B934231D0DDF804B0CDF8009002
:10E57000ACF10200002318E0824204D1FFF747FF0C
:10E5800005460746D0E70027CEE730F802AF5344F0
:10E590001946029B3BF802AB33F8123003FB0A1317
:10E5A0000099038001391B0C009100990029ECD1DE
:10E5B0004146881C13B1A8F800300146A1EB0E01BA
:10E5C00049100CF1020C01328046CAE761602A78DA
:10E5D000337853402278384663F30002227005B046
:10E5E000BDE8F04FFFF7F2BE10B5D0E901210346B8
:10E5F00001EB42020020914204D31B78DB0748BFA5
:10E60000404210BD32F8024D44EA0040F3E72DE9E4
:10E61000F0470546D1B19818D5E901840026A4F148
:10E62000020E4FF0010C374603EB0209B8F1000F60
:10E630000ED1B9B3C21A18462B7813F0010FBDE8FA
:10E64000F04714BFFF21002125F0F4B81846E3E796
:10E650003EF8024F103744EA064695F800A0072F0F
:10E660000AF0010A02DC08F1FF38DFE7B4B2BAF1C0
:10E67000000F06D0E4435CFA84FC1FFA8CF4CCF360
:10E68000072CE4B249B100F1FF3A00F8014C5345C0
:10E690000BD0083F360A5046DFE782460AF8014BA6
:10E6A000CA45F5E713441A1AC6E7BDE8F08700002B
:10E6B000D0E901329FED0C0A9FED0C7A02EB430387
:10E6C0009A4205D30378DB0748BFB1EE400A704792
:10E6D00033F8021D07EE901AF8EEE77AE0EE077ABB
:10E6E000B0EE670AECE700BF0000000000008047C2
:10E6F00038B505460C460221FFF774FE002C2B7836
:10E70000B4BF0122002262F300032B704FF000031C
:10E71000B8BF64426B6004B938BDD5E90132581CFA
:10E72000686022F81340240CF5E72DE9F04F0C4601
:10E7300051688FB09046013105460293FFF752FEB3
:10E74000D8F80420A86801325200002125F072F8A0
:10E750002B7800266FF300032B706E60D8F804103E
:10E7600020460131FFF73EFE41462046FFF76EFE90
:10E77000029BA768D4F80490D3E9013A0193AB68EF
:10E7800003935246019B49463846FFF75AFD00283D
:10E7900036D1039A6060012313806B60237861682F
:10E7A000C3F3000200290CBF002202F0010262F351
:10E7B0000003029A237098F8003012785340DB0768
:10E7C0001BD56B682A78003B18BF012363F3000256
:10E7D0002A7091B100234FF0FF310BA8CDE90B3324
:10E7E0000D93FFF785FF0BAA29462846FFF743FE46
:10E7F000029A21462046FFF73EFE0FB0BDE8F08F9B
:10E8000001DA6E60CAE7019B03F10042013A4FEA68
:10E81000420E3AF81230180406F1010153D5B3B292
:10E8200009F1010007EB490B00210093C3F110032C
:10E8300027F81910BC4660600BF102090493CC451F
:10E8400045D33AF81220009B02FA03F30493019B8C
:10E85000012B0AD90AEB0E02009B32F8022CC3F1FD
:10E860001001CA40049911430491019BC01A6860C9
:10E87000039B00F10040013803EB400306930EF1C7
:10E8800002030993AAF1020A63680593059A019BA2
:10E89000934229D3009B02F1004B0BF1FF3B07EBA6
:10E8A0004B0B0020C3F110065F4573D96FF0004198
:10E8B0006B682BB103985A1830F81220002A74D0D4
:10E8C0006FF0004176E05B009BB20E46A3E7BCF818
:10E8D0000060009B06FA03F31943049B2CF8021B0B
:10E8E00026FA03F189B2AAE7BBF800103BF8022C24
:10E8F000049B42EA0142B2FBF3F2099BABEB030338
:10E90000CDE9073A00201E468646B3450ED8BBF82F
:10E9100000100844002838D1069B23F802290693EA
:10E92000059B5A1EABF1020B6260ADE7089BB6F87F
:10E93000009033F8021F0893009B994041EA1E4E55
:10E940001FFA8EF1514319FA80F91FFA81FC090C64
:10E95000A9EB0C0CC1EB204126F802CB01EB2C40BB
:10E96000D3E739F802CF009B0CFA03FC4CEA1E4EA9
:10E97000B6F800C011FA8EF1614426F8021B090CAA
:10E98000B345EED80844013AC4E70021079ED146BA
:10E990008E46F5E7BBF80020009B42FA03F10143E5
:10E9A000B2402BF8021990B27EE7013B6B607FE723
:10E9B000013B63606368002B3FF4F0AE5A1837F8F0
:10E9C0001220002AF4D0E9E67FB5064601AD742096
:10E9D00085E80E00FEF79AFA0446034695E807001C
:10E9E00043F8046B83E8070001236FF00102002560
:10E9F000C4E90A320A22C4E90E23C4E90C551420E2
:10EA0000FEF784FA2021206404F15000FEF736FE60
:10EA1000294604F16000FEF731FE236C256720468D
:10EA20001D80C4E905552561FDF7BEFB2046FDF7B5
:10EA3000BBFB2046FDF7B8FB2046FEF70DFFA36C9D
:10EA4000012B06D094F84C30062B1CBF072384F80A
:10EA50004C30204604B070BD30B585B001AD0446E1
:10EA60000146284613F088FA95E80E002046FFF785
:10EA7000ABFF05B030BD30B5058D04460022954290
:10EA800001D8002030BDE36A03EBC20043688B422B
:10EA9000F8D00132F3E770B504460D461646FFF78D
:10EAA000EAFFC0B9E38C228D9A4208D30633D9001D
:10EAB000E06AFEF74BFBE38CE0620633E384238DD0
:10EAC000E26A591C02EBC300218502F8336000237F
:10EAD00043704380456070BD10B501220446FFF7C6
:10EAE000DAFF0378012B05D12378012B8CBF042397
:10EAF0000223037010BD70B504460D46104619463A
:10EB0000FFF7B9FF03785A1E012A05D86B68002267
:10EB10002046BDE870401847032B02D16B680122E4
:10EB2000F6E72D684288042B2046AC4608BF002338
:10EB3000BDE8704018BF01236047000010B40446D0
:10EB40000B466278006A012A03D15DF8044BFFF797
:10EB5000A2BF02460249606A5DF8044BFFF7CBBFD3
:10EB60006C6F030810B4026A0446407801280B4613
:10EB700004D15DF8044B1046FFF7AEBF606A02494E
:10EB80005DF8044BFFF7B7BF746F030810B4026A57
:10EB90000446407801280B4604D15DF8044B10462A
:10EBA000FFF79ABF606A02495DF8044BFFF7A3BF05
:10EBB000646F030838B543680D46044611464BB9E7
:10EBC000054806F093FB294660602046BDE83840C2
:10EBD000FDF7EDBB38BD00BF148703080B79092B87
:10EBE00073B50CBF848AC48A4FF6FF739C420646F5
:10EBF00002D11A4AFFF7DEFF318B756A768B8E1BC6
:10EC000024F400431CD1220411D559212846019334
:10EC1000FDF722FC59212846FDF71EFC5921284604
:10EC2000FDF71AFC59212846FDF716FC019B4222EC
:10EC300000212846FDF735FC0123AB7102B070BD01
:10EC4000284640220021FDF72CFC210A21F07F01FB
:10EC50003143C9B22846FDF7FFFBEDE7134803082F
:10EC600070B51446054612780E46ABB132B1032A90
:10EC700004D0134ABDE87040FFF79CBF0323237004
:10EC80002B6A616818465B68002BFBD1FFF7F3FE27
:10EC900008B10323037070BD6AB901232370036AAE
:10ECA0002146586824F01BFC2378012BF3D1054A38
:10ECB00031462846DEE7062AEDD0034ADAE700BFF0
:10ECC0002C48030839480308464803082DE9F34156
:10ECD0004378012B04460D461AD10B79102B0CBF3B
:10ECE0004FF001084FF0000808D0036A1B782BB9D9
:10ECF000114A02B0BDE8F041FFF75CBF01AA6D21E7
:10ED000005F10800FDF732FB00260746B74202D1A5
:10ED100002B0BDE8F081019B206A53F82610002262
:10ED20000909FFF7B8FE4346024629462046FFF789
:10ED300097FF0136EAE700BF4D480308014AFFF795
:10ED400039BF00BF5F4803088842F8B505460C4646
:10ED500001D10120F8BD04F0CFFE0646204604F0A4
:10ED6000CBFE864201D00020F4E70F4B9E4214D127
:10ED70006A6863689A42F6D105F1080708340026EC
:10ED80006B68B342E5D954F8041B57F8040BFFF73E
:10ED9000DBFF0028E7D00136F2E721462846BDE830
:10EDA000F84005F021B800BFF488030838B50446E0
:10EDB0001D46FDF764FB2A4620460249BDE838405F
:10EDC00012F0A9BC35C4000830B41D4601EB420462
:10EDD00041EA022325B13522E14330BCFFF7E6BF0B
:10EDE00034226142F9E737B504460D46C068019206
:10EDF0001946FDF7C2FC019A03462946204603B096
:10EE0000BDE83040FFF7D2BF10B504460B46406A5C
:10EE100014220121FFF7E7FF606A002336224FF03A
:10EE2000FF31FFF7C3FF2046BDE81040FDF7CCBC23
:10EE30000B4610220121FFF7D6BF000070B5054632
:10EE40000C4679B3CA0705D5BDE87040406A491041
:10EE5000FDF7E2BB8B0718D004F00F04022C4FEA39
:10EE6000111109D0062C0BD006291BD0BDE870402B
:10EE7000406AC9B2FDF79CBCBDE87040FFF75EBEBA
:10EE8000BDE87040406AFFF7D3BF0968406AFDF7EC
:10EE900065FB2279044B2146284653F82230BDE811
:10EEA0007040184770BD00BF1C6203084B682DE915
:10EEB000F04105460E461F0A01F108080024BC4235
:10EEC00001DBBDE8F08158F8041B2846FFF7B6FFC8
:10EED0006B683BB10234284656F82410BDE8F04177
:10EEE000FDF765BA0134EAE710B50446FFF7DEFF27
:10EEF000606A2221BDE81040FDF7F1BB2DE9F74F14
:10EF000006460C4615461F4600212046FDF726FC06
:10EF100038B16DB9706A394603B0BDE8F04FFDF7FE
:10EF2000D4BB01212046FDF719FC20B1002DF1D101
:10EF300003B0BDE8F08F002C4DD0A3074BD1636820
:10EF40004FEA132BDBB21E2B37D1002D39D1D6F867
:10EF50000C8008F10103F3600BF1FF3304F1080AA0
:10EF60004FF00009009385F00102009B4B450FDC38
:10EF70000BF10101304654F821103B462A46FFF7B9
:10EF8000BDFF706A414603B0BDE8F04FFDF736BBE8
:10EF90005AF8041B019243463046FFF7AFFF09F1D0
:10EFA0000109019AE1E754F8041B3B462A46304622
:10EFB000FFF7A4FF4445F6D1BAE71F2B05D1002D7A
:10EFC000C5D1083404EB8B08F4E7202B03D1A468E7
:10EFD00085F0010598E730462146FFF72FFF706A5C
:10EFE0003B463DB143224FF0FF3103B0BDE8F04F47
:10EFF000FDF757BA4422F6E701F00F03022B2DE983
:10F00000F34705460C4605D1090902B0BDE8F047B3
:10F01000FFF7BCBD00296AD011F0030667D10B7958
:10F020002C2B4CD18968FFF709FFE668002E5ED0D3
:10F0300016F003085BD17768FAB28E2A334609D1FD
:10F040003F0A06F1080907F1FF3AC24519DC01370A
:10F0500056F827301A79312A1BD199682846FFF7CC
:10F06000EDFE686A0090FDF71BFB0098FDF729FB99
:10F07000009856226FF0020102B0BDE8F047FDF79C
:10F08000FEB959F8041B2846FFF7D8FE08F101081D
:10F09000DBE7322A2BD19B68686A1B09CDE90003A4
:10F0A000FDF7FEFA0098FDF708FB019B0098182277
:10F0B0006FF0010102B0BDE8F047FFF794BE2D2BC1
:10F0C00015D18C689CB163681B0A022B01D1E368DF
:10F0D00043B904F108076368B6EB132F0FD302B0EE
:10F0E000BDE8F0879A07F4D11B79AC2BF1D1074A20
:10F0F0002146284602B0BDE8F047FFF75BBD57F850
:10F10000041B2846FFF778FF0136E4E76C48030844
:10F11000F8B5026A1278072A044604D0BDE8F84020
:10F12000164AFFF747BD8D6845B9406A1021FDF7C3
:10F130003FFB606ABDE8F840FDF7F4BA15F0030242
:10F140001AD12B791B2B17D1C668EF68731CC360CB
:10F15000B9683346FFF7D2FEA9682046FFF76EFE76
:10F16000606AFDF7DFFA3146606AFDF747FAF96831
:10F170002046FFF763FEDCE72946F9E776480308F7
:10F1800010B504468968FFF759FE606ABDE8104073
:10F19000FDF78EBA38B58D68044645B9446A6422D5
:10F1A00029462046FDF76BF90123A37138BDAB0753
:10F1B0000ED12B795E2B0BD1A968FFF73FFEE968D2
:10F1C0002046FFF73BFE646A66226FF00101E8E724
:10F1D00029462046FFF732FE646A65224FF0FF3170
:10F1E000DFE72DE9F347C6680D46731CC36004468C
:10F1F0000021A868FDF7B2FA0246E0B9E768A968FD
:10F200007B1CE36020463B46FFF778FEE96820461A
:10F21000FFF714FEA8680121FDF7A0FAC8B92B6911
:10F220000BB96B691BB1606A3146FDF74EFA606A33
:10F230003946FDF7E3F901AA712105F11000FDF748
:10F2400095F8002781464F450AD169692046FFF7A6
:10F25000F5FD606A3146FDF7D1F902B0BDE8F087EF
:10F26000019B53F827800021D8F80800FDF776FAB3
:10F270000246F0B9D4F80CA0D8F808100AF101033E
:10F28000E36020465346FFF739FED8F80C102046BD
:10F29000FFF7D4FDD8F808000121FDF75FFA002838
:10F2A000D7D1606A3146FDF710FA606A5146FDF722
:10F2B000A5F90137C7E72DE9F047C668D0F814A0D3
:10F2C000B0F81A9086820D46B31CC36006F101089F
:10F2D000038BA0F81680044643830021A868FDF73D
:10F2E0003DFAE8B9E768A8687B1CE3600121FDF7F7
:10F2F00035FA18B9606A4146FDF7E7F9606A3946A0
:10F30000FDF77CF9E9682046FFF798FD606A414601
:10F31000FDF774F9A9683B4601222046FFF7EEFD90
:10F320002969C4F814A02046A4F81A90FFF786FDB6
:10F33000606A3146BDE8F047FDF760B92DE9F04F4E
:10F340002DED028B83B0C56801921E460E9B08EE20
:10F35000103AAB1C0446C3600F4601222946FDF754
:10F36000E6F839462046FFF769FD676A05F1010AAC
:10F370004A22384653460021FDF793F80123BB711A
:10F38000606A2946FDF73AF9606A0421FDF76BF8D7
:10F39000D4F80C8008F10103E3600027019B9F4231
:10F3A00019DB2046FDF774F8606A6FF00201FDF783
:10F3B0005AF8606A5146FDF721F918EE101A2046F6
:10F3C000FFF73CFD606A414603B0BDEC028BBDE82F
:10F3D000F04FFDF713B93346D4F80C901A68009239
:10F3E00009F10102E260009AD2F808B00436013750
:10F3F000BBF1000F44D1019ABA4234D1606AFDF7E3
:10F4000057F90025AB46009B2046D968FFF716FD4B
:10F41000B5B1606A1021FDF7CBF9606A5946FDF776
:10F42000EDF8606A1021FDF7C3F929462046FFF781
:10F4300099FB20462946FFF7A9FB2046FDF728F84F
:10F44000606A009043464A220021FDF72AF800989E
:10F45000012585714946606AFDF7D0F8606A294642
:10F46000FDF701F89AE720461E4A1968FFF7A2FB4C
:10F47000204603B0BDEC028BBDE8F04FFDF708B8A5
:10F480001BF003052BD19BF80420762A5B4603D1A1
:10F49000DD68DBF808B02D09606AFDF705F959460B
:10F4A0002046FFF7CBFC606A0821FDF718F9606A77
:10F4B0004B4644224FF0FF31FCF7F3FF002D9DD067
:10F4C00029462046FFF74EFBD4F80CB00BF10102A1
:10F4D000E260594602222046FDF729F893E700250D
:10F4E000DAE700BF824803082DE9F043C76885B01A
:10F4F00016467A1CC2600D46022239460393DDE9A6
:10F500000C980446FDF713F8039BF6B9606A0321D3
:10F51000FCF7A9FF29462046FFF790FC606A6FF0D0
:10F520000201FCF7A0FF606A1021FDF741F9606A53
:10F530003946FDF763F820464146FFF77FFC204639
:10F5400005B0BDE8F043FCF7A3BFCDF8009032460C
:10F5500029462046FFF7F2FEE5E77FB5CD682B7917
:10F56000782B06460C4609D1AB6801930023009323
:10F5700089681A46FFF7B8FF04B070BD742B03AA60
:10F580004FF0770116D105F10800FCF7EFFE2B696B
:10F5900002463BB9EB680093A168039B3046FFF736
:10F5A000CDFEE9E79B680193EB680093A168039B9C
:10F5B0003046DFE704F10C00FCF7D8FE00230246DA
:10F5C000E9E72DE9F041C568D1F80C800E46AB1C87
:10F5D00004460022D8F80810C3602B46FFF78EFCC3
:10F5E0006F1CB1682046FFF729FC606A3946FDF7B9
:10F5F0006CF8606A2946FDF701F8606A4FF0FF3148
:10F60000FCF731FFD8F80C102046FFF717FC606AB2
:10F610003946BDE8F041FCF7F1BF000001F00F03EF
:10F62000022B70B504460D46164602D01E4AFFF75F
:10F63000C1FA31462046FFF701FC606AFDF734F855
:10F640006378012B4FEA15160FD1226A1378033B1A
:10F65000032B0AD850683146FFF73EFA0278032A96
:10F6600009D1206A3146FFF716FA31462046BDE837
:10F670007040FFF777BA206A00223146FFF70BFA95
:10F68000236A5B685B68002B0CBF0123002304D056
:10F690000278012A04BF0022027002462946204651
:10F6A000FFF7DEFAE1E700BF93480308D1E9021251
:10F6B000FFF7B4BF2DE9F843C7684E687B1C5FFABB
:10F6C00086F90446C360360A01F108054FF00008C8
:10F6D000B04505DB606A3946BDE8F843FCF78EBFEC
:10F6E00055F8041B204608F10108FFF7A7FBB045B9
:10F6F000F0DAB9F11E0F606A3B460CBF4522462284
:10F700004FF0FF31FCF7CDFEE2E710B50446896803
:10F71000FFF794FB606AD322BDE810400021FCF79C
:10F72000AEBE2DE9F0414E6804460D46360A8968A2
:10F73000FFF784FB032E83BFD4F80C8008F101038C
:10F74000E3604FF0000801277B1CB3421CDB032E53
:10F750004CDDE568606A6B1CE3602946FCF7B5FF89
:10F76000606A4146FCF74AFF0121606AFCF77BFEB4
:10F77000606AFCF7A2FF606AFCF79AFF606A29469C
:10F78000BDE8F041FCF73ABF296920460237FFF790
:10F7900055FBB74205DA606AFCF786FF606AFCF742
:10F7A00090FFE968606A01F00F030A2B13D1C1F3DF
:10F7B000071126291ABF3539C9B20621FCF78FFF78
:10F7C000B74206DA606A434646224FF0FF31FCF743
:10F7D00068FE0835B8E70B79852B01D13221EDE7BA
:10F7E0008B680BB90721E9E73321E7E7BDE8F08132
:10F7F0002DE9F0414D680C4689680646FFF71EFB6F
:10F80000A5F10D085FFA88F82D0A0C340127AF42E4
:10F8100001DBBDE8F08154F8041B3046FFF70EFB16
:10F82000706A4146FCF75BFF0137F0E7F8B54B68BB
:10F830000C46896805461F0AFFF700FB0C340026BA
:10F840000236B74204F1080400DCF8BD54F8041C89
:10F850002846FFF7F3FA54F8081C686A09092539A5
:10F86000C9B2FCF73CFFEBE738B50C46C968054662
:10F87000FFF7E4FAA268686AC2F30712342A1ABFD3
:10F88000403AD2B20222303ABDE83840D2B200212A
:10F89000FCF7F5BD10B504468968FFF7CFFA606A3A
:10F8A0005522BDE810404FF0FF31FCF7E8BD38B5F8
:10F8B0000C460546C968FFF7C1FAA1682846BDE8AD
:10F8C0003840FFF7BBBA000038B5026A1278072A41
:10F8D00004460B4606D0022A04D0BDE83840114A3F
:10F8E000FFF768B99D684DB9606A1021FCF760FFA9
:10F8F000606A0021BDE83840FCF71EBFAB070BD1A2
:10F900002B79AF2B08D12046A968FFF797FA20463C
:10F91000BDE83840FCF758BF29462046FFF78EFA6D
:10F92000E6E700BF9E48030811320B46D2B2012120
:10F93000FFF759BAF8B5174BD3F8D47104460D4602
:10F9400037BBC6688968731CC36001223346FFF762
:10F95000D5FA1F21606A0122FFF7E6FFE96841B18D
:10F960002046FFF76BFA606A3B463A460121FFF7F3
:10F970002BFA656A4FF0FF3128466522FCF77FFDC0
:10F980000123606AAB713146BDE8F840FCF736BE32
:10F99000F8BD00BF0C00002016320B46D2B24FF06B
:10F9A000FF31FFF720BA19320B46D2B20021FFF720
:10F9B0001ABA0B4613220021FFF715BA8B072DE95F
:10F9C000F14F04460D46164611D001F00F03022BED
:10F9D00017D1D7074FEA111104D401B0BDE8F04F99
:10F9E000FFF7C0B801B0BDE8F04FFFF7A7B849680E
:10F9F000CBB22D2B00F081800BD8062B0ED02C2BF8
:10FA000013D0524A2946204601B0BDE8F04FFFF717
:10FA1000D1B82E2B00F085809D2BF2D1002EF0D195
:10FA200005F10802090A204680E0022A02D0A968EE
:10FA3000FFF704FAEF68002FE3D017F00309E0D1D5
:10FA40007B68DAB28E2AB8460DD1022E4FEA13280F
:10FA500005D007F1080A08F1FF3BD94510DB08F192
:10FA6000010857F8288098F80430312B25D1022E50
:10FA70000ED1606AFCF725FE56226FF0020116E0F7
:10FA80005AF8041B2046FFF7D9F909F10109E4E708
:10FA9000D8F808102046FFF7D1F9012EECD15822F2
:10FAA0000221606AFCF7EBFC55224FF0FF31606ADF
:10FAB00001B0BDE8F04FFCF7E2BC322BA1D1012E22
:10FAC000606A0AD1FCF7F0FDD8F80810606A0909ED
:10FAD00001B0BDE8F04FFFF76CBF022E01D1FCF77B
:10FAE000ECFDD8F80830606A1B0918226FF001019C
:10FAF00001B0BDE8F04FFFF776B9AA68002A80D0C0
:10FB0000002E7FF47EAF5168090A022907D1D3681D
:10FB10002BB1980703D11B79AC2B3FF472AF08329D
:10FB200081E7002A7FF46DAFA96821B901B0BDE873
:10FB3000F04F00F00DB88E0703D10B79922B0A46D7
:10FB4000E1D005F1080201216DE700BF93480308E9
:10FB50002DE9F7430D460139044690464FEA012945
:10FB600000264FF0FF3719F5807F0CD17B1C04D1A4
:10FB7000606A2B463022FFF719F90026AE4221D1E8
:10FB800003B0BDE8F08358F826307BB19A070DD159
:10FB90001A79222A0AD101370CD1606A019149EA07
:10FBA00006033122FFF702F9019937460136A9F51C
:10FBB0008079D8E7094A1946204603B0BDE8F043EA
:10FBC000FEF7F8BF58F82610B74208BF8968002230
:10FBD0002046FFF7F3FE0136D0E700BFA94803082F
:10FBE0002DE9F04F8B682DED028B03F00F03022BF4
:10FBF00087B004460E4640F0F380CB68002B00F03F
:10FC0000EF80980740F0EC801A792C2A40F0E880C9
:10FC10009A6802F00F01022940F0E28012097C2A62
:10FC200040F0DE80DB681A79302A40F0D9809B688A
:10FC3000059304AAA42105A8FCF798FB431E022BF8
:10FC400000F2CE80049901280A6800F0BB800228E7
:10FC5000D1F804A000F010818D68E90740F1C08060
:10FC60006B0800F0BD8032B1930704D11179A63939
:10FC7000022940F2B580BAF1000F08D01AF0030F44
:10FC800005D19AF80410A639022940F2A980B36878
:10FC90007769218B08EE103A3369E66808EE903AEE
:10FCA00063690293638B01936183731C311D1AF0A6
:10FCB0000108039306F1020BA682E38206F1030911
:10FCC000E16005D1514620460392FFF7B7F8039A49
:10FCD00011462046FFF7B2F8606A4946FCF7F5FC8A
:10FCE0005946606AFCF78AFC606AFCF7DDFC00227A
:10FCF00018EE101A2046FFF761FE18EE901A204603
:10FD0000FFF79CF8606A711CFCF778FC29462046D6
:10FD1000FFF794F8606A0E21FCF7E1FC606A49463F
:10FD2000FCF76CFCB8F1000F50D1606A5822022138
:10FD3000FCF7A5FB606AFCF7C0FC002DACBF0021FE
:10FD40000121606AFCF7CBFC5B46606A43224FF0FE
:10FD5000FF31FCF7A6FB029B6361019B6383002FCD
:10FD60003CD0606AFCF7A4FCB8F1000F02D1606AD5
:10FD7000FCF79EFC39462046FFF760F8E568606AAC
:10FD80006B1C2946E360FCF7A0FC88F00101606A67
:10FD90000131FCF768FB606A3146FCF72FFC606AB2
:10FDA000FCF786FCB8F1000F02D1606AFCF780FC1A
:10FDB0001FB1606A2946FCF721FC07B0BDEC028B3D
:10FDC000BDE8F08F92460325024654E7606AFCF7CF
:10FDD0006BFC51462046FFF731F8AEE73D46DAE7C7
:10FDE000E568238BB4F81A9063836FEA4542EB1CF5
:10FDF0006F1C6FEA5242D4F814A0E360F168A2824B
:10FE00002046E782FFF71AF8606A5F220321FCF7B9
:10FE100036FB05F10208606A3946FCF7EFFB434602
:10FE2000606A4B220121FCF73CFB0022B1682046AE
:10FE3000FFF7C4FD31692046FFF700F8606A3946D4
:10FE4000FCF743FC606A4146FCF7D8FB606A6FF040
:10FE50000301FCF708FB7169C4F814A02046A4F85C
:10FE60001A90FEF7EBFF606A294607B0BDEC028BE3
:10FE7000BDE8F04FFCF7C2BB0325F4E62DE9F743DC
:10FE80000446904699460F4629B9194603B0BDE885
:10FE9000F043FEF7D3BFC668731CC360156895B303
:10FEA00015F003022FD12B797B2B2CD1A96801925D
:10FEB000FEF7C4FF019A31462046FCF738FB019A51
:10FEC000E9682046FFF77AFD4B4608F10402791EE7
:10FED0002046FFF7D3FF606A01901021FCF768FC11
:10FEE00001983146FCF78AFB5C220221FCF7C7FA35
:10FEF00001986FF00301FCF7B6FA204603B0BDE8A5
:10FF0000F043FCF7C5BA29462046FEF797FF204686
:10FF100000223146FCF70BFB606AFCF7C9FBD3E714
:10FF200037B50C46054601AA7A2104F10800FCF712
:10FF30001DFAE368019A01462846FFF79FFF03B0C8
:10FF400030BD2DE9F041CD6804460E4625BB03784F
:10FF5000ABB1036A1D7895B94FF4E071FEF7EEFD81
:10FF6000B1682046FEF76AFF606A2B462A460121E7
:10FF7000FEF72AFF606ABDE8F041FCF799BBB16863
:10FF8000880700F0B68001F00F03022B40F0B88024
:10FF90002046FEF753FFEDE7A90740F0B5806B68F8
:10FFA000DAB25B2A14D1ED68002D40F0AB80006A14
:10FFB0000378072B40F0A480B16801F00F03022BF7
:10FFC00040F09E800422BDE8F041D140FEF763BDC1
:10FFD000562A11D10122B168FFF7F0FCE9682046EA
:10FFE000FEF72CFFA968606A09093F39C9B2FCF71E
:10FFF00076FB0222B16877E0572A40F083801B0A23
:020000040801F1
:100000005F1E013355F82310FEF718FF002F02DDA5
:10001000606AFCF749FBB16800222046FFF7CEFC7E
:1000200008350026BE426BDA0136BE4202DA606A4B
:10003000FCF73AFB55F8041B00222046FFF7BEFCF4
:10004000F0E76B68DAB2062A5ED1B768002F5BD0A2
:10005000BA0759D17A68D1B2062955D11B0AB3EB38
:10006000122F4FEA12284FD1A8F10203012B4BD8CF
:10007000BB6823B1980702D11B79222B44D0FB68BF
:1000800023B1990702D11B79222B3DD0B8F1020F81
:1000900006D03B6923B19A0702D11B79222B33D0BA
:1000A000A9682046FEF7CAFEE9682046FEF7C6FEAC
:1000B000B8F1030F06D120462969FEF7BFFE606A3A
:1000C000FCF7FFFA606AFCF7F8FAB96800222046EC
:1000D000FFF774FCF96800222046FFF76FFCB8F1C7
:1000E000030F0DD1396900222046BDE8F041FFF72A
:1000F00065BC00293FF44CAF0B793A2B7FF448AF35
:10010000BDE8F081AB079CD029462046FEF796FE5D
:1001100000226FE72DE9F843C76804461E46BB1C62
:100120000D46C3603946406A07F101089146FCF765
:1001300065FA606A43464B220121FCF7B2F9A968CF
:1001400000222046FFF73AFC2D698DBB4946204628
:10015000FEF774FE236A1B78062B15D1606A2946C8
:10016000FCF7EAFA606AFCF7A3FA606A3946FCF722
:10017000ACFA606A4146FCF741FA606A6FF003012D
:10018000BDE8F843FCF76FB9B600032B606A06F1CF
:1001900005060BD0042B08D002232E4443EA860325
:1001A0002F22E943FEF702FEDFE701252B46F4E7A5
:1001B0002B79AD2B07D1A9683B4600222046FEF7DC
:1001C0009DFEED68C1E7E9682046FEF737FE606AEC
:1001D0005F220321FCF753F9731C4A462946204647
:1001E000FFF798FFC1E72DE9F04F85B0814600AFDA
:1001F0000C4611B90123136013E011F003061BD163
:100200000B79682B06D1CB681B0913608C68002C16
:10021000F0D0012604F00F03022B0FD12309002E8A
:10022000E9D0D9F824001B224FF0FF31FEF7DBFDA7
:100230001437BD46BDE8F08F0026EBE716B9A3687A
:100240001B091360656804F1080A2D0A05F1FF3BDC
:10025000D0460AEB850558F8040B0009FDF750F964
:10026000A8458344F7D10BF1070323F00703ADEB57
:10027000030D6B4698465AF8040B3B6007F10C01DE
:100280000009FDF754F9FA687A600146404623F008
:100290008DFA7A683B68AA45904418D159461846A9
:1002A000FDF77CF81B2203464FF0FF31D9F82400FC
:1002B000FEF799FD002EBBD00C34A542B8D054F8FF
:1002C000041BD9F824000909FFF773FBF5E74FF089
:1002D0002E0208F8012BCEE737B504460D468022E2
:1002E000406A0121FCF7CBF8606A1021FCF760FA44
:1002F00001AA29462046FFF776FF01992046FEF71E
:1003000031FC03B030BD2DE9F74F044690460F464F
:1003100029B9194603B0BDE8F04FFEF78FBDC66896
:10032000321DC260D8F8005006F1010A06F1020B36
:1003300006F10309002D00F0D28015F0030240F011
:10034000CE8029797B2940F0CA80A968CDE90032A6
:10035000FEF774FD606AFCF7A7F940F2B31120467E
:10036000FEF752FD019AE9682046FFF727FB009B44
:100370000093022231462046FCF7D9F8606A032137
:10038000FCF771F8009B08F10402791E2046FFF784
:10039000BAFF606A6FF00201FCF765F8606A10212D
:1003A000FCF706FA606AFCF788F9606A5146FCF7C8
:1003B0008CF93146606AFCF721F9606AFCF774F940
:1003C000606A01222121FFF7AFFA606A0821FCF779
:1003D00086F95B4644224FF0FF31606AFCF761F812
:1003E000606AFCF761F9606AFCF76BF9606AFCF718
:1003F00064F94FF4DA7314220121606AFEF7F3FC0A
:10040000606AFCF75EF9606AFCF75BF9606AFCF70A
:100410004BF9606A0A21FFF7CCFA606AFCF74DF9E4
:10042000606A1021FCF7C4F9606A032336226FF07A
:100430000301FEF7BBFC2046FCF7C6F94B464422FD
:10044000606A4FF0FF31FCF72CF8606AFCF730F976
:10045000606A1021FCF7ACF9606A4946FCF735F98F
:10046000606A0221FBF7FFFF5946606AFCF7C6F895
:10047000606AFCF726F9606AFCF723F9606A514666
:10048000FCF7BCF84FF4DA731422606A0121FEF71E
:10049000AAFC1021606AFCF78BF9606AFCF704F98A
:1004A000606AFCF701F9032336226FF00301606AEA
:1004B000FEF77CFC2046FCF787F9606AFCF7F8F849
:1004C000606A4FF0FF31FBF7CEFF606A4946FCF7E8
:1004D00095F8204603B0BDE8F04FFBF7D9BF294699
:1004E00020460093FEF7AAFC606AFCF7DDF8204680
:1004F00040F2B311FEF788FC606AFCF7D9F836E7E2
:100500008968406A0909FFF754BA70B4C46826784C
:10051000042E1D4608BF6668638808BF46F823504E
:100520005D1C658070BCFEF741BC10B4044643B945
:100530000F2A06D8503A5DF8044BD2B20121FBF7DE
:100540009EBF03F12401204613465DF8044BCAB256
:100550000121FEF72BBC2DE9F74F05460C469046CE
:1005600099461BB1CB8A43F00803CB822B6AA4F8CF
:100570001E801B78002B4AD159EA0802686A236959
:1005800048D13222012103B0BDE8F04FFFF7BDBFD3
:10059000DB6A03EBC70B13F83730053B012B1AD886
:1005A0004FF0000A14E0E36A03EBCA0213F83A3092
:1005B000062B0BD1DBF804105368994206D1BBF827
:1005C0000220686A0023FFF7B0FF01360AF1010A32
:1005D000238D5345E7DC01372B6A1A8DBA42D7DCED
:1005E000002EC9D059EA0802686A236901900BBF3E
:1005F000C6F10101F14320222122FFF786FFF4B268
:100600000198214603B0BDE8F04FFBF725BF002756
:100610003E46E1E733224FF0FF31B4E770B543784F
:10062000CE68012B0446154606D1036A0A461B8B89
:100630002946FCF777FC7061002371691A46204651
:10064000FFF789FFF1682046FEF7F8FB062D04D17D
:10065000606A5E220021FBF712FF0023606A1A46DF
:10066000BDE870400121FEF7AFBB00002DE9F04F5F
:1006700087B0CDE90221044605AAA42103A81D469E
:10068000FBF774FE4FF000080190C146474646460E
:100690004FF0010B019B984514D11FB1606A494688
:1006A000FBF7BAFF029B606A002B77D005EB46018F
:1006B00045EA0623002F6FD001313722C943FEF7E8
:1006C00075FB13E0059B53F828A0BAF1000F5AD030
:1006D0001AF0030F57D19AF80420A62A1AD1B807A6
:1006E00007D5314A51462046FEF764FA07B0BDE807
:1006F000F08FB8F11D0F01D92C4AF3E70BFA08F27D
:10070000DAF8081047F0010749EA02092046FEF727
:1007100095FB1FE0A72A0DD1606AFBF7C1FFDAF84D
:10072000081047F002072046FEF788FB013608F163
:100730000108AFE7A82A26D1DAF80C2072B1910798
:100740000CD11179AA2907D19268DAF8081020464D
:10075000FEF764FF0135EAE7AC290ED0DAF808109D
:1007600001F00F02022A01D0114ABBE70909606AB1
:10077000FEF75EFBDAF80C10D5E70622514620465C
:10078000FFF74CFFE6E7BB0701D50A4AAAE70EB11F
:10079000094AA7E75146B9E736228FE73B4632467A
:1007A0002946FEF711FBA1E7B0480308B748030844
:1007B000BF480308CC480308D348030870B50D466A
:1007C000417801290446134603D12A46FCF7AAFBC7
:1007D0006861606A54220121FBF751FE6E690023B3
:1007E0001A4631462046FFF7B6FEB18A606AFEF728
:1007F0001FFBE96829B18B0703D10B79A32B08BF35
:100800000021204602230022FFF730FFB08A70BD8E
:10081000036A10B51A8B0446FFF7D0FF0146204645
:10082000BDE81040FEF79EB9002389681A46FFF71D
:100830001DBF10B404464BB90F2A07D8403A5DF8E3
:10084000044BD2B24FF0FF31FBF719BE03F1260182
:10085000204613465DF8044BCAB24FF0FF31FEF755
:10086000A5BA03F128011346CAB20021FEF79EBAC9
:10087000022A02F12A020B46D2B214BFC1F10101D1
:100880000121FEF793BAF8B54E6801F10804360A63
:10089000054604EB8607BC4206D1686A3146002251
:1008A000BDE8F840FFF7E4BF54F8041B2846FEF704
:1008B000C5FAF0E701F00F03022B70B504460FD024
:1008C0000B79492B01D04F2B02D10123A37070BDAE
:1008D0004A2BFCD0502BFAD0482B0DD10D696DB9A5
:1008E000A378002BF3D1638A002BF0D020461A4A5C
:1008F000BDE87040FEF75EB9CD68F0E7A3780BB3B2
:10090000238A8E6801339BB2012B23820AD1618A2C
:10091000606AA1B10022FFF7ABFF606A02220021EA
:10092000FFF7A6FF29462046FEF788FA606A3109DC
:10093000FEF77EFA606ABDE87040FBF7EEBEFBF79B
:10094000AFFEEAE7638A0133638229462046BDE8A9
:100950007040FEF773BA00BFDA480308F8B50446E2
:100960000E4611461A460023857807698370036195
:100970000D4BFBF725FD6368A3B9618A39B1228A63
:100980002AB9606AFFF774FF606AFBF789FE238A61
:10099000628A31462046FFF7DEFD003D18BF012583
:1009A000A5702761F8BD00BFB508010870B51346F2
:1009B0004278012A05460C4604D10A460721FCF775
:1009C000B1FAA061A669E268284646233146FFF7DE
:1009D000C5FFB08A70BD00002DE9F04F044685B018
:1009E0000F4602AA422107F10800FBF7BFFC236A69
:1009F000DFF8E0A01E8B00258346A9465D4509D19E
:100A0000F9680B79032B3DD132462046FFF7CEFF24
:100A1000054645E0029B53F82530009303AA6C215C
:100A200003F10800FBF7A2FC039B19680A09732A6B
:100A300080460CD02046FEF701FA0123434516D329
:100A4000009BD96859B12046FEF7F8F907E0022863
:100A500007D052462046FEF7ADF809F101090135ED
:100A6000CCE759680B09412BF3D10126F5E7039A2E
:100A7000606A52F8231001930909FEF79AFF019B5F
:100A80000133DBE7442B17D18F68324639462046C5
:100A9000FFF78CFFBA69D38A43F001030546D3827E
:100AA0000026ABEB0909B1450BD829462046FEF7D5
:100AB00059F805B0BDE8F08F32462046FFF77EFEBC
:100AC000A6E70023606A1A460121FEF77DF9013688
:100AD000E9E700BFF1480308036A10B51A8B044622
:100AE000FFF764FF01462046BDE81040FEF73AB824
:100AF0002DE9F04F8D682DED028B2B79032B87B0FC
:100B000004460CD12946FFF7E7FFAA69D38A43F0D0
:100B10000103D38207B0BDEC028BBDE8F08F026AFF
:100B2000D28AD20708D4624A294607B0BDEC028BAC
:100B3000BDE8F04FFEF73EB8162B40F0AB80C6681C
:100B4000E968B31C08EE103A331DC360FEF776F96E
:100B5000606A40F2B51314220121FEF744F9606A7D
:100B6000362200234FF0FF31FEF720F9D4F80C9025
:100B700063690293638B019309F1020309F1010890
:100B8000E360238B638306F1010B606AA4F8149081
:100B90004146A4F81680FBF731FD01225946204654
:100BA000FBF7C5FC606AFBF77FFD20464FF4DB7165
:100BB000FEF72AF9A96820460022FEF7FFFE18EE8C
:100BC000103A4A22606A03900021FBF76AFC0398FE
:100BD000012787715946606AFBF710FD606A04219E
:100BE000FBF741FC606AFBF75FFD3A46606A4FF431
:100BF000D071FEF799FE06F1030A606A0821FBF73F
:100C00006EFD5346606A44224FF0FF31FBF749FC0A
:100C1000606AFBF74DFDD4F824B04A2233465846AB
:100C20000021FBF73EFC606A8BF806705146FBF72B
:100C3000E5FC3946606AFBF716FC2046FBF728FC0A
:100C4000606A6FF00201FBF70EFC18EE101A606A82
:100C5000FBF7D4FC29692046FEF7F0F8606A4146AC
:100C6000FBF733FD029B6361019B6383606A31463E
:100C7000FBF7C4FC69692046FEF7E0F8606A494664
:100C8000FBF7BCFC606A07B0BDEC028BBDE8F04F1F
:100C9000FBF70EBD05AA7A2105F10800FBF766FBFC
:100CA000EB68059A01462046FFF72DFB32E700BFAF
:100CB0000949030870B54378012B05460C4606D157
:100CC000036A0A461B8B0221FCF72CF92061A268FB
:100CD000216928464C23BDE87040FFF73FBE000065
:100CE0002DE9F3418D6805F00F030A2B04460E46EB
:100CF00006D0002D30D0AB072ED12B79652B1ED11D
:100D0000019500256A46652101A8FBF72FFB009B92
:100D1000002103EB800040F2DA52984215D1F268CC
:100D200040F22A439A4233D1236A1F78B7B1374A37
:100D30003146204602B0BDE8F041FDF73BBF622BD3
:100D40000AD1AB680193ED68DCE753F8047B974266
:100D50000CBF01310331E0E70021E0E7606AFBF7F7
:100D60005BFC606A0521FEF763F8606A3A46012180
:100D7000FFF77EFD01AA29462046FFF734FA606A94
:100D800069224FF0FF31FBF77AFB02B0BDE8F0813A
:100D9000606AFBF741FC06F10C0001AA6A21FBF72F
:100DA000E5FA00270646B742606A0FD100223146B5
:100DB000FFF75EFD29466A462046FFF714FA002534
:100DC000B542606A0BD1FBF773FCDEE7019B53F879
:100DD000273099680909FEF72BF80137E3E7019BF3
:100DE00053F82580D8F808703F0901213B461C22A2
:100DF000FDF7F9FFD8F80C1029B939462046FDF760
:100E0000B1FE0135DCE70909F8E700BF2049030816
:100E10008968034619B9406A0A46FFF729BD4A683E
:100E2000120A022A0AD1CA6842B112F0030F05D190
:100E30001279AC2A02D10622FFF7F0BB1846FFF761
:100E400022BD38B58C68054634B901222146686A4E
:100E5000BDE83840FFF70CBDA1071BD16368DAB2CB
:100E6000922A17D11B0A022B0CD1E36853B19A07BF
:100E700008D11B79AC2B05D121460322BDE83840AF
:100E8000FFF7CCBB21462846FEF710F86168012227
:100E9000090ADCE721462846FDF7D0FF012211466A
:100EA000D5E700002DE9F7438D68044616464DB995
:100EB000002A68D002222946606A03B0BDE8F043E8
:100EC000FFF7D6BC15F003077DD12B79372B0FD157
:100ED00022B1406A02220121FFF7CAFC20462946BE
:100EE000FDF7ACFF606A03B0BDE8F043FBF715BC4B
:100EF0009F2B68D1EB681A79A12A52D1A22101AAAD
:100F000003F10800FBF732FAA9688046F1B18B07BC
:100F10001CD10B79372B19D126B1411C0222606AF2
:100F2000FFF7A6FCA9682046FDF788FF606AFBF77B
:100F3000F4FB4FF0010947450ED1B9F1000F22D162
:100F4000606A0322791CFFF793FC1CE02046FDF742
:100F500075FF4FF00009EEE7019B53F82710A9B188
:100F60008E0713D10E79A6F137004642464120463E
:100F7000FDF764FFB9F1000F0FD04EB9154A2946AD
:100F80002046FDF717FE03B0BDE8F0830026EEE72C
:100F9000606AFBF7C2FB0137CDE7002EFBD00E4A9B
:100FA000EDE7AB685BB19A0709D11B79372B06D106
:100FB0000422294603B0BDE8F043FFF72FBB05220A
:100FC00029462046F6E729462046FDF737FF03224B
:100FD000012171E732490308404903082DE9F7432D
:100FE0000C4689680546FDF729FFE668002E58D0B3
:100FF0007768296AFBB209788E2BA36819BF04F1C0
:101000000C0601273F0A0836072903F00F024DD1CD
:10101000022A49D11A099A2A4AD13268117930290B
:1010200046D19268002A43D10A212846FDF786FD61
:101030002A6AD36A128D3AB9414A3168284603B008
:10104000BDE8F043FDF7B6BD5978C9070DD559681D
:101050002846FDF773FD022F0AD80023686A1A4656
:101060000221FDF7B1FE012419E0013A0833E2E75D
:1010700073681A79322AF0D1B4682279302AECD117
:101080009B68686A1B0915224FF0FF31FDF7ABFE24
:10109000A168002301222846FFF7E8FA0324A742AB
:1010A00025D803B0BDE8F0830024F8E7022AFBD17D
:1010B00040F26912B2EB131FF6D133681A79302A65
:1010C000F2D19C68002CEAD014F00302ECD1237911
:1010D0002F2BE9D1686A019213461146FDF774FE81
:1010E0003368019A99682846FFF7DCFEBBE704F1F4
:1010F0000108B84556F824104FEA84031AD20A7939
:10110000322A17D13344D3F8049099F80430302BA5
:1011100010D18B68686A1B0914220121FDF763FE58
:10112000D9F80810002301222846FFF79FFA08F19A
:101130000104B4E72846FDF781FEA046F7E700BFAB
:101140004D49030810B5026A1278072A04460B4677
:1011500006D0022A04D0BDE81040064AFDF72ABD99
:1011600020461946FFF73AFF2046BDE81040FBF73E
:101170002BBB00BF604903080122FFF793BE38B5BF
:101180000B79342B04460D460CD18968FDF756FEC9
:10119000ED68AD685DB9606A1021FBF709FB0422B8
:1011A000022115E0406A1021FBF702FBF1E7AB07D3
:1011B0001CD12B799A2B10D11021606AFBF7F8FA19
:1011C000A9680029EBD02046FDF738FE0422032150
:1011D000606ABDE83840FFF74BBB9B2B06D1A9687E
:1011E0002046FDF72BFEEB689968EAE72946204682
:1011F000FDF724FED3E700002DE9F04F0023032A7A
:1012000085B004460D46174642700162C36080F8FF
:10121000282003D1408D00285DD1E062666AB5F8D0
:101220002080B5F82490B5F81AA0B5F816B00023C0
:101230006385C6E90453B360B371F362736286F8E1
:1012400038306B8C777101229844904538BF9046B6
:101250004FEA89010AF0030008F1FF3801F00401A8
:1012600001434FEAC80000F07800B2610143AA8B45
:10127000EB8B01910BF00F0B4FEA18184FEA59094D
:101280004FEA9A0A4BEA0807174347EA0A0747EA70
:1012900009071F4323D101213046FBF7BFF8019B0B
:1012A00003707379022B4CD8736AA98AF363F068D0
:1012B000DFF8D882FBF761FAB4490246304610F0F5
:1012C0002AFA4FF000096B8BAA8B1344994570DA08
:1012D000298D002269E08000FBF718FE9DE70121BF
:1012E0003046CDE90223FBF799F8019B029A63F09F
:1012F0007F010170039B4FEA8B114FEA081000F049
:10130000300001F04001014303F001000143D0002F
:1013100000F0080001434FEA8A0000F00400014396
:101320004FEA490000F00200014301914FEA98089A
:101330004FEA59094FEA5B0B4FEA5A0A52085B0819
:10134000A0E7D6E90F9A4FEA49080AF0010308F02E
:101350007E084FEA5A0A4FEA991948EA03085AEAFE
:10136000090B4FF00101304618BF48F08008FBF729
:1013700055F880F80080BBF1000FE4D194E7EB6AE8
:1013800003EBC2035878C0070ED5588848450BD1E7
:101390005968F068FBF7F1F941460246304610F013
:1013A000BAF909F101098EE701328A42E7DB05212A
:1013B000EFE794F80180EE68B8F1010F02BF002357
:1013C0006B84AB8496B1B20710D133793F2B0DD12A
:1013D000B1682046FDF732FD606AFBF7A3F9646A45
:1013E0006379012B40F0AA800120E3E02B7843B918
:1013F00031462046FDF722FD606A1021FBF7D8F93F
:10140000EAE7072B0CD1B8F1010F07D10023A37035
:10141000F1685F4B46222046FAF7D2FF7169E8E790
:10142000022B19D13168606AFBF798F86378012BB9
:1014300007D10023A370B168564B4C222046FAF71F
:10144000BFFFF1682046FDF7F9FCEB8ADB07C3D547
:10145000606AFBF72DF9CFE7033B032B43D8B8F1C4
:10146000010FD6F80C9006D1206A04224146FDF700
:1014700012FBA5F81A803168606AFBF76FF82B78C9
:10148000032B1ED10122606A0021FFF7F1F92B78AE
:10149000062B1ED1606AFBF703F901212046FDF7F8
:1014A0004DFB606AFBF7FCF8606AFBF7F9F8002374
:1014B000B26849462046FEF72DFE2B78062B8BD1CD
:1014C0009AE7042B01D10222DDE7052BDFD10322AD
:1014D000D9E720460121FDF731FB606A5F22032135
:1014E000FAF7CDFFE3E7B8F1010F04D104220A2196
:1014F0002846FDF7D0FA17212046FDF71FFB1621DD
:101500002046FDF72FFBB168606A0909FDF790FCE2
:101510001A212046FDF726FB31692046FDF78EFC97
:101520000A212846FDF7A7FA0378042B3FF464AF9D
:101530004288606A0023FEF7F8FF4DE7E26B636ABA
:101540009B1AE3630023236423691A8D97420BD30C
:101550006279032A20D1606AE36AA0622363184497
:10156000FBF7D4FC60633FE7DB6A03EBC70213F8C9
:101570003730052B08D1012120469578FAF74EFF28
:101580000570236C013323640137DDE71DC40008B7
:10159000EBC70008F3C70008042A7FF425AFD4E99D
:1015A0000A02616A814202D1206B904205D0A16299
:1015B0002263002005B0BDE8F08F94F838201AB1FE
:1015C0000B490C4803F0C0FE1969E268DB8A5068D9
:1015D0000A88656BDB0003F47E7322F47F7243F0AC
:1015E000020322F003021343C1E901500B80FBE622
:1015F0006B490308F0860308194D6C6907B501466D
:1016000054B90190174810F0E7FC1748019906F00B
:1016100085F8164817F03EF86060AB690BB19C4244
:101620001AD823686B612046C468056946698769D2
:10163000D0F81C80D0F82090D0F824A0D0F828B0A2
:10164000D0F82CD090ED0C8B90ED0E9B90ED10AB64
:10165000D0F808E0012070470120FBF705F9DCE72E
:101660000C0000207649030864710308D3D90308ED
:101670002DE9F04F2DED028B1D462D2A00F1280398
:1016800008EE103A87B00446884616460DD1002170
:10169000FAF786FEC8B1870702D10379922B14D0DE
:1016A00007B0BDEC028BBDE8F08F922A20D100215B
:1016B000FAF776FE014640B1880706D10B79952BE3
:1016C0000AD12046FAF765FE013DA6F11E03012B63
:1016D0006FD8A9462F461CE0962BF6D12046FAF784
:1016E00058FE4B6823F0FF0343F092034B60D7E7AB
:1016F000962A08BF0135E8E71E2E4ED10121FBF7DF
:101700002DF80146C8B95046FBF728F8002808BF55
:101710005F4607F1FF3BB9F1000F0ED009F1FF3929
:1017200049462046FAF73CFE22696169D21B82468F
:1017300041F82200B9F1000FDED10021594533D123
:101740006D1A012DACD0A6F12303022B01D92A2E4C
:1017500072D1691E2046FAF723FE03A9FAF798FD15
:10176000002800F08581232E43D0242E44D0252E3E
:101770000CBF4FF018094FF02209AF1E002F3EDAC0
:10178000002D40F06A81039AD30740F16B8142F04B
:1017900001012046FBF70FFD82E70021FAF7DEFF8B
:1017A0000028CAD10121AEE72046FAF7F2FD013147
:1017B000C4E7202EC7D100212046FAF7F1FD002111
:1017C0000746FAF7CBFF88B901213846FAF7C6FF7A
:1017D0000028B8D0FA212046FAF7DBFD204607B0F2
:1017E000BDEC028BBDE8F04FFBF7E5BC4FF48D710B
:1017F000F1E74FF01609C0E74FF01709BDE739468A
:101800002046FAF7CDFD04A9FAF742FD002800F0C2
:101810003B81B9F1220F049A07D11046019202F0E0
:101820002BFD0028019AC0F22F810399484607F04A
:101830001DF8013F0390A1E7A6F12603022B47D82C
:10184000691E2046FAF7ACFD03A9FAF721FD00282E
:1018500000F04E81A5F10209B9F1000F90DD09F108
:10186000FF312046FAF79CFD04A9FAF711FDA8B153
:1018700049462046FAF794FDC0F3071043280DD0DF
:1018800045280BD0049A01922538C7B2104602F0C1
:10189000F3FC1A2F019A0FD8002811DAA91C89002D
:1018A0002046FBF79FFC46EA05230746C0F8008068
:1018B000436000F108010FE11E2F01D90028EDD08F
:1018C0000399384606F0D2FFA9F102090390C3E755
:1018D000292E19D100212046FAF762FD03A9FAF753
:1018E000D7FC0028DAD001212046FAF759FDC0F3D1
:1018F0000710342818BF4038039914BFC0B2022023
:1019000002F0A8FD03903BE7052E67D10021204699
:10191000FAF746FD07460028C0D010F0030B04D1AB
:10192000436803F0FE03562BB8D001212046FAF796
:1019300037FD00F00F03022BB0D1BBF1000FADD18A
